:020000040800F2
:1000000020160020CD01000829140008D50D000895
:100010002514000853030008B7230008000000005F
:10002000000000000000000000000000B7180008F9
:100030006907000800000000BD140008D919000875
:10004000E7010008E7010008E7010008E7010008F0
:10005000E7010008E7010008E70100086D07000854
:10006000E7010008E7010008B5070008E7010008FC
:10007000E7010008E7010008E7010008E7010008C0
:10008000E7010008E7010008E7010008E7010008B0
:10009000E7010008E7010008E7010008FD07000884
:1000A000E7010008E7010008E7010008E701000890
:1000B000E7010008D11A0008E7010008E70100087D
:1000C000E7010008E7010008E7010008E701000870
:1000D000E7010008A51E0008D91F000879210008C3
:1000E000E7010008E7010008E7010008E701000850
:1000F000E7010008E7010008E7010008E701000840
:10010000E7010008E7010008E7010008E70100082F
:10011000E7010008E7010008E7010008E70100081F
:10012000E7010008E7010008E7010008E70100080F
:1001300000F002F800F03AF80AA090E8000C8244BF
:100140008344AAF10107DA4501D100F02FF8AFF29C
:10015000090EBAE80F0013F0010F18BFFB1A43F0A5
:1001600001031847883F0000A83F0000103A24BF51
:1001700078C878C1FAD8520724BF30C830C144BF0C
:1001800004680C607047000000230024002500264E
:10019000103A28BF78C1FBD8520728BF30C148BFEA
:1001A0000B6070471FB51FBD10B510BD00F074F88F
:1001B0001146FFF7F7FF02F0E9F900F092F803B4F7
:1001C000FFF7F2FF03BC02F08BF9000009488047FB
:1001D00009480047FEE7FEE7FEE7FEE7FEE7FEE729
:1001E000FEE7FEE7FEE7FEE704480549054A064B41
:1001F00070470000DD1900083101000820100020C0
:10020000201600202012002020120020704700003D
:100210004FF0013C50F8042B51F8043B9A4221D195
:10022000A2EB0C03934313EACC1317D150F8042B21
:1002300051F8043B9A4215D1A2EB0C03934313EA05
:10024000CC130BD150F8042B51F8043B9A4209D13E
:10025000A2EB0C03934313EACC13DBD04FF0000066
:10026000704700BFD01A01BAB1FA81F101F018014C
:1002700022FA01F0CB40C1F12001DBB2C0B2C01ABA
:100280002CFA01F3D11A914311EAC311E6D1704758
:100290007047704770477047754600F029F8AE46C2
:1002A00005006946534620F00700854618B020B582
:1002B000FFF79AFFBDE820404FF000064FF000071F
:1002C0004FF000084FF0000B21F00701AC46ACE8FE
:1002D000C009ACE8C009ACE8C009ACE8C0098D466B
:1002E00070470446AFF300802046FFF768FF000028
:1002F00000487047C00F00202DE9F04104460D462C
:1003000016461F462A2000F051FFC4F3072000F0D4
:1003100041FFE0B200F03EFFC6F3072000F03AFFD5
:10032000F0B200F037FF2B2000F040FFC5F30720AC
:1003300000F030FFE8B200F02DFFC7F3072000F017
:1003400029FFF8B200F026FF2C2000F02FFFBDE8B7
:10035000F08100BFFEE70000002000BF03E00021A5
:10036000044A1154401CB0F5487FF8D30021024ADA
:1003700011807047B2010020C4000020002000BF9F
:1003800003E00021044A1154401CFA28F9D300214B
:10039000024A118070470000D2040020C6000020ED
:1003A000002000BF03E00021044A1154401CFA2839
:1003B000F9D30021024A118070470000CC050020CB
:1003C000C800002010B577480078002866D076A2D3
:1003D0002821012000F040FE73A23A21012000F004
:1003E0003BFE77A001F0AAFD79A001F04FFD7BA2B2
:1003F0002821012000F030FE4FF47A7002F0A0F8BE
:100400004FF47A7002F09CF84FF47A7002F098F88A
:100410004FF47A7002F094F84FF47A7002F090F88A
:100420004FF47A7002F08CF8FFF796FF00207049C5
:10043000087070A001F082FD73A001F027FD5AA2A0
:100440002821012000F008FE57A23A21012000F0E7
:1004500003FE71A22821012000F0FEFD02F0A2FEA1
:1004600071480078002819D000204E4908700120FA
:100470006E4908704CA2282100F0EEFD4AA23A21F4
:10048000012000F0E9FD6AA22821012000F0E4FD2E
:100490006CA001F053FD00206E490870634800789D
:1004A000002841D040A23A21012000F0D5FD3EA213
:1004B0004C21012000F0D0FD67A23A21012000F07C
:1004C000CBFD69A001F03AFD6CA001F0DFFC02F069
:1004D00085FE1E2002F034F853480078A8B170A0C1
:1004E00001F02CFD0020514908702FA24C21012061
:1004F00000F0B2FD6EA23A21012000F0ADFD012016
:100500007149087000205349087052480078401C17
:100510005049087008460078212805DD00206A4906
:10052000087001201F49087067480078002838D0FB
:1005300066A001F003FD6AA001F0A8FC02F032FE03
:1005400019A24C21012000F087FD69A24C21012055
:1005500000F082FD6AA001F0F1FC6DA001F096FCB4
:1005600002F020FE3048007860B100203949087060
:100570005549087071A24C21012000F06DFD75A055
:1005800001F0DCFC33480078401C32490870084612
:100590000078032805DD01202449087000204A491D
:1005A000087010BD150100202020202020202020D0
:1005B00020202020202020202020202000000000BB
:1005C000D6D8C6F4C4A3BFE92E2E2E0D0A00000013
:1005D00041542B5253540D0A0000000052657365BC
:1005E000742077696669206D6F64652E2E2E000079
:1005F000D3000020C9E8D6C3B9A4D7F7C4A3CABDA5
:100600002E2E2E0D0A00000041542B43574D4F440F
:10061000453D330D0A000000736574696E67206DF7
:100620006F64652E2E2E2E00CB00002016010020B8
:10063000736574206D6F6465207375636365737390
:1006400000000000C9E8D6C3C4A3CABDB3C9B9A697
:100650000D0A000018010020436F6E6E6563742060
:10066000574946492E2E2E00C1ACBDD3D2D1D6AAB1
:10067000576946692E2E2E0D0A00000041542B4367
:10068000574A41503D22574946495F313030222C6C
:10069000223132333435363738220D0A000000005B
:1006A000C1ACBDD377696669B3C9B9A60D0A0000AC
:1006B000436F6E6E65637420576946692073756376
:1006C000636573730000000017010020C6F4B6AF25
:1006D000B6E0C4A3BFE9C1ACBDD32E2E2E0D0A00D7
:1006E00041542B4349504D55583D310D0A000000EF
:1006F000436F6E6E65637420536572762E2E2E00E6
:10070000C1ACBDD3B7FECEF1C6F72E2E2E0D0A001A
:1007100041542B43495053544152543D342C22549C
:100720004350222C223139322E3136382E312E329E
:100730003030222C363030300D0A0000436F6E6EA0
:100740006563742053657276207375636365737394
:1007500000000000C1ACBDD3B7FECEF1C6F7B3C9EF
:10076000B9A60D0A000000007047000010B5142063
:1007700001F0E6FE02210C4800F00EFB38B94FF400
:1007800000710A4800F011FB01200949087002209D
:1007900000F0E4F8022001F0D3FE4FF400710348AA
:1007A00000F005FB10BD000000080140000C0140F6
:1007B0001401002010B5142001F0C2FE10210C48D5
:1007C00000F0EAFA38B94FF400710A4800F0EDFA87
:1007D000052009490870102000F0C0F8022001F03F
:1007E000AFFE4FF40071034800F0E1FA10BD0000C5
:1007F00000080140000C01401401002010B5142035
:1008000001F09EFE40211C4800F0C6FA38B94FF4B2
:1008100000711A4800F0C9FA022019490870202115
:10082000154800F0B9FA38B94FF40071134800F0D8
:10083000BCFA03201249087080210F4800F0ACFA7E
:1008400038B94FF400710D4800F0AFFA04200C499C
:100850000870402000F082F8202000F07FF880200F
:1008600000F07CF8022001F06BFE4FF400710348A9
:1008700000F09DFA10BD000000080140000C01408E
:10088000140100200EB500F0A7FA0121084600F07F
:1008900057FE00208DF808000C208DF8090001207B
:1008A0008DF80A0001A800F05FF80121002000F097
:1008B0007FF90220019001A800F056F804210020E1
:1008C00000F076F91020019001A800F04DF8052104
:1008D000002000F06DF92020019001A800F044F8FC
:1008E0000621002000F064F94020019001A800F0EA
:1008F0003BF80721002000F05BF98020019001A85F
:1009000000F032F807208DF8000003208DF8010078
:1009100002208DF8020001208DF80300684600F0E7
:100920008BFD0A208DF8000003208DF801000120C6
:100930008DF802008DF80300684600F07DFD172059
:100940008DF8000003208DF801008DF802000120D1
:100950008DF80300684600F06FFD0EBD0149086088
:100960007047000014040140002123498279002AC5
:100970003AD00A46126803689A430B461A600A1D69
:10098000126803689A430B1D1A60027911440A68C1
:1009900003681A430A60184A0832126803689A43C7
:1009A000154B08331A601A1D126803689A43124BDC
:1009B0000C331A604279102A0ED11A1F126803688C
:1009C0001A430D4B08331A601A1D126803681A4344
:1009D000094B0C331A600DE00749427911440A684B
:1009E00003681A430A6005E0027911440A68036843
:1009F0009A430A60704700000004014030B5044685
:100A000004254FF4302000F06FF80546042D17D16F
:100A10000C48006940F002000A4908610846446138
:100A2000006940F0400008614FF4302000F05CF8AD
:100A300005460448006941F6FD7108400149086116
:100A4000284630BD0020024004200B49C96801F04F
:100A5000010109B101200EE00749C96801F0040154
:100A600009B1022007E00449C96801F0100109B189
:100A7000032000E004207047002002400348006982
:100A800040F08000014908617047000000200240EA
:100A900070B504460D460426F00200F025F806461F
:100AA000042E11D10948006940F00100074908618E
:100AB0002580F00200F018F806460448006941F667
:100AC000FE71084001490861304670BD00200240B7
:100AD000024803494860034848607047230167455E
:100AE00000200240AB89EFCD00B502460423FFF79A
:100AF000ABFF034603E0FFF7A7FF0346521E012B9F
:100B000001D1002AF7D102B90523184600BD000023
:100B100008B5684600F04DF90121142000F010FDE1
:100B20004FF40040ADF8000003208DF802001020C3
:100B30008DF8030069461C4800F05AF80C20ADF807
:100B4000000003208DF8020010208DF80300694694
:100B5000154800F04DF80120ADF8000003208DF895
:100B6000020010208DF803006946104800F040F89C
:100B70004020ADF8000003208DF8020010208DF811
:100B800003006946084800F033F80120ADF8000082
:100B900003208DF8020010208DF8030069460248FA
:100BA00000F026F808BD00000010014000080140D8
:100BB00030B500228B071C0F0F2303FA04F20B4BF6
:100BC0008C1053F824309343084C8D1044F8253092
:100BD00023468C1053F824308C07240F00FA04F4B9
:100BE0002343024C8D1044F8253030BD08000140ED
:100BF0002DE9F041024600250026002000230024B4
:100C0000002791F803C00CF00F0591F803C00CF019
:100C1000100CBCF1000F03D091F802C04CEA05059E
:100C200091F800C0BCF1000F31D0146800202BE017
:100C30004FF0010C0CFA00F3B1F800C00CEA030607
:100C40009E4220D183004FF00F0C0CFA03F7BC43F7
:100C500005FA03FC4CEA040491F803C0BCF1280F28
:100C600006D14FF0010C0CFA00FCC2F814C00AE0E7
:100C700091F803C0BCF1480F05D14FF0010C0CFAFC
:100C800000FCC2F810C0401C0828D1D31460B1F891
:100C900000C0BCF1FF0F34DD546800202EE000F1ED
:100CA000080C4FF0010808FA0CF3B1F800C00CEA88
:100CB00003069E4221D183004FF00F0C0CFA03F77C
:100CC000BC4305FA03FC4CEA040491F803C0BCF1F0
:100CD000280F05D100F1080C08FA0CF8C2F81480AE
:100CE00091F803C0BCF1480F07D100F1080C4FF098
:100CF000010808FA0CF8C2F81080401C0828CED36E
:100D00005460BDE8F0810000F0B50A4600230024DD
:100D10000021002500F00046B6F1004F02D11D4E23
:100D2000F16901E01B4E7168C0F3034583B200F422
:100D30004016B6F5401F08D121F07061154E766857
:100D400026F07066134F7E6012E000F48016B6F550
:100D5000801F06D1032606FA05F4A14341F0706115
:100D600006E0460D360103FA06F6B14341F0706124
:100D700022B1460D360103FA06F6314300F0004673
:100D8000B6F1004F02D1034EF16101E0014E7160F6
:100D9000F0BD0000000001400246002093680B40B7
:100DA0000BB1012000E000207047416170470161F4
:100DB00070474FF6FF710180022181700421C170DC
:100DC00070470246002100E0491C505C0028FBD11E
:100DD000C8B2704700BFFEE708B50121042000F04B
:100DE000AFFBF220ADF8000048208DF80300694603
:100DF0000148FFF7FDFE08BD0008014070B506463A
:100E0000EF2340F23F1200210846FFF775FA002455
:100E100008E0002503E0304600F0ACF96D1CF02D31
:100E2000F9D3641CB4F5A07FF3D370BD2DE9FF4F57
:100E300085B081468A460020049003900798A0EB75
:100E400009050898A0EB0A06CDF80890CDF804A093
:100E5000002D01DD012705E00DB9002702E04FF06C
:100E6000FF376D42002E02DD4FF0010806E016B993
:100E70004FF0000802E04FF0FF387642B54201DD46
:100E80002C4600E034464FF0000B1DE0DDE9011078
:100E900000F020F80498284404900398304403900C
:100EA0000498A04205DD0498001B04900298384481
:100EB00002900398A04205DD0398001B039001985F
:100EC000404401900BF1010B601C8345DED909B051
:100ED000BDE8F08F70B504460D462B4622462946E4
:100EE0002046FFF709FA0248006800F043F970BD98
:100EF000100100202DE9F04104460D4616461F461C
:100F00002B46324629462046FFF790FF3B462246B5
:100F100029462046FFF78AFF3B463246394620469F
:100F2000FFF784FF3B46324629463046FFF77EFFF7
:100F3000BDE8F0812DE9F04704460D4616461F46F0
:100F4000DDF820A03B46324629462046FFF7D4F97B
:100F5000A8460AE0A14604E0504600F00BF909F16A
:100F60000109B145F8D908F10108B845F2D9BDE841
:100F7000F08700002DE9F84F05460F4616469A46C1
:100F8000AB46324800680090B5F5987F01D8E02F55
:100F900001D9BDE8F88FA6F12000C6B207F10F0312
:100FA000EA1D39462846FFF7A7F9BAF1000F29D103
:100FB000002424E004EB0610254911F800904FF0BE
:100FC000000815E009F0010018B1204900980860F8
:100FD00003E0204800681D4908601C48006800F0D4
:100FE000C9F84FEA69096D1C08F1010000F0FF081B
:100FF000B8F1080FE6DB5D467F1C601CC4B2102C04
:10100000D8DB1EE000241AE004EB0610104911F8AA
:1010100000904FF000080DE009F0010020B13919EF
:1010200005EB0800FFF756FF4FEA690908F10100D8
:1010300000F0FF08B8F1080FEEDB601CC4B2102C02
:10104000E2DB02490098086000BFA2E7100100201F
:10105000143200080C01002070B505460E461446F7
:1010600015E0B5F5987F01D900251036E02E06D998
:101070000020054606464FF47840FFF7BFFE227871
:10108000002331462846FFF775FF0835641C207899
:101090000028E6D170BD2DE9F04106460F46144602
:1010A000002508E006EB05102246394600F008F856
:1010B000A41C681CC5B220780028F3D1BDE8F081DB
:1010C0002DE9F84F81468A4615460AF10F0309F1CA
:1010D0000F0251464846FFF70FF94FF0430B20200F
:1010E000009000243BE004EB04101F4901EB40009A
:1010F00090F820002978884230D104EB04101A4976
:1011000001EB400090F821006978884226D104EB79
:101110000410154901EB400600271BE04FF00008C2
:1011200012E03078012101FA08F1084020B10F489F
:10113000006800F01FF803E00D48006800F01AF89E
:1011400008F1010000F0FF08B8F1080FE9DB761C98
:10115000781CC7B200988742E0D302E0641C5C456B
:10116000C1D300BFBDE8F88F04380008100100208B
:101170000C01002010B5044601210548FFF717FEB9
:10118000C4F3072000F01EF8E0B200F01BF810BD19
:10119000000C014010B5044601210348FFF707FE8B
:1011A000204600F00FF810BD000C014010B50446B9
:1011B00001210348FFF7F9FD204600F003F810BDB8
:1011C000000C014010B50446204600F077FA10BD2F
:1011D00008B50121082000F0B3F941F20300ADF891
:1011E000000010208DF8030003208DF802006946EE
:1011F0008B48FFF7FDFC4FF203018948FFF7D7FD4D
:1012000000F018FA02218648FFF7CFFD142001F004
:1012100097F902218248FFF7CAFD142001F090F9E6
:101220004FF480517E48FFF7C2FDCF20FFF7BEFF8D
:101230000020FFF7AFFFD920FFF7ACFF3020FFF70A
:10124000A9FFED20FFF7B2FF6420FFF7A3FF032003
:10125000FFF7A0FF1220FFF79DFF8120FFF79AFF05
:10126000E820FFF7A3FF8520FFF794FF1020FFF78A
:1012700091FF7820FFF78EFFCB20FFF797FF3920F3
:10128000FFF788FF2C20FFF785FF0020FFF782FF84
:101290003420FFF77FFF0220FFF77CFFF720FFF7E6
:1012A00085FF2020FFF776FFEA20FFF77FFF002071
:1012B000FFF770FF0020FFF76DFFC020FFF776FFFC
:1012C0002120FFF767FFC120FFF770FF1220FFF713
:1012D00061FFC520FFF76AFF3220FFF75BFF3C206C
:1012E000FFF758FFC720FFF761FFC120FFF752FF4C
:1012F0003620FFF75BFFB820FFF74CFF3A20FFF7DF
:1013000055FF5520FFF746FFB120FFF74FFF0020A4
:10131000FFF740FF1820FFF73DFFB620FFF746FF1D
:101320000A20FFF737FFA220FFF734FFF220FFF774
:101330003DFF0020FFF72EFF2620FFF737FF01209B
:10134000FFF728FFE020FFF731FF0F20FFF722FF14
:101350002020FFF71FFF1E20FFF71CFF0920FFF7CB
:1013600019FF1220FFF716FF0B20FFF713FF502085
:10137000FFF710FFBA20FFF70DFF4420FFF70AFF29
:101380000920FFF707FF1420FFF704FF0520FFF7F0
:1013900001FF2320FFF7FEFE2120FFF7FBFE0020C8
:1013A000FFF7F8FEE120FFF701FF0020FFF7F2FE54
:1013B0001920FFF7EFFE1920FFF7ECFE0020FFF7E2
:1013C000E9FE1220FFF7E6FE0720FFF7E3FE2D20DF
:1013D000FFF7E0FE2820FFF7DDFE3F20FFF7DAFEF3
:1013E0000220FFF7D7FE0A20FFF7D4FE0820FFF700
:1013F000D1FE2520FFF7CEFE2D20FFF7CBFE0F20DC
:10140000FFF7C8FE1120FFF7D1FE782001F098F811
:101410002920FFF7CBFE0020FFF7F0FC08BD0000FD
:10142000000C014000BFFEE7704710B54FF4A0600C
:1014300000F03AF810BD000070B5002100230F2223
:10144000C47804B3154C246804F4E064C4F5E06483
:10145000210AC1F10403CA40447804FA03F18478F4
:101460001440214309010E4C0678A155047804F07C
:101470001F050124AC4005786D11AD0005F1E02594
:10148000C5F8004109E0047804F01F050124AC40D0
:10149000044D0678761145F8264070BD0CED00E04D
:1014A00000E400E080E100E002490143024A1160EB
:1014B000704700000000FA050CED00E070472DE9D0
:1014C000F04105460B46164600240022002100206C
:1014D0001F4601E07F1C521C97F800C0BCF1000FB2
:1014E000F8D1002416E000210CE005EB040C1CF8F8
:1014F00001C013F80180C44501D1012001E00020A2
:1015000002E0491C9142F0D300BF914201D1BDE8F5
:10151000F081641CA6EB020CA445E4D800BFF6E7FA
:1015200029B1064AD2690243044BDA6104E0034A56
:10153000D2698243014BDA6170470000001002401B
:1015400029B1064A92690243044B9A6104E0034AB6
:1015500092698243014B9A6170470000001002407B
:1015600030B500210022002400232D4D6D6805F0C8
:101570000C0121B1042905D0082923D105E0294D0A
:10158000056022E0274D05601FE0254D6D6805F4DC
:101590007012234D6D6805F48034022505EB9242EC
:1015A0001CB9214D554305600BE01D4D6D6805F4D8
:1015B00000351DB11C4D5543056002E0194D5543E2
:1015C000056002E0174D056000BF00BF144D6D6857
:1015D00005F0F0010909154D6B5C0568DD404560BB
:1015E0000F4D6D6805F4E061090A104D6B5C4568AC
:1015F000DD4085600A4D6D6805F46051C90A0B4DE8
:101600006B5C4568DD40C560054D6D6805F4404183
:10161000890B074D6B5CC568B5FBF3F5056130BD03
:101620000010024000127A0000093D00E100002095
:10163000F100002000B587B001210820FFF780FFEE
:1016400001218803FFF76CFF4FF46040ADF81800EC
:1016500018208DF81B0003208DF81A0006A91548E4
:10166000FFF7C6FA0020ADF804004FF48270ADF821
:1016700006000020ADF808000220ADF80A000120A5
:10168000ADF80C004002ADF80E000020ADF81000DF
:10169000ADF812000720ADF8140001A9064800F0CB
:1016A00051F80121044800F033F8FF2000F006F85B
:1016B00007B000BD000C01400038004070B5054681
:1016C000002405E0601CC4B2C82C01DD002070BD00
:1016D00002210E4800F028F80028F3D029460B48D4
:1016E00000F02EF8002405E0601CC4B2C82C01DD17
:1016F0000020ECE70121054800F016F80028F3D09F
:10170000024800F01AF8C0B2E1E7000000380040DB
:1017100021B1028842F04002028004E002884FF6C4
:10172000BF731A40028070470246002013890B40A5
:101730000BB1012000E00020704701468889704706
:101740008181704710B50022028802F441520B8853
:101750004C8823438C882343CC8823430C89234320
:101760004C8923438C892343CC8923431A43028029
:10177000838B4FF2FF74234083830B8A038210BD57
:1017800030B503460C461546002207E0184600F027
:1017900008F824F812009B1C501C82B2AA42F5DB08
:1017A00030BD0146088870472DE9F05F80468A46C3
:1017B0001746B8F1006F02D33348804501D3BDE826
:1017C000F09FFFF785F9A8F1006B4FEADB25CBF31B
:1017D0004909C9F58064A74200DC3C464DE04FF062
:1017E000006101EBC5204A142849FFF7C9FF002614
:1017F0000BE009EB0600254931F810004FF6FF71A8
:10180000884200D003E0701C86B2A642F1DB00BF24
:10181000A6421BDA4FF0006101EBC520FFF7EEF89E
:10182000002608E03AF8160006EB0901174A22F8EC
:101830001100701C86B2A642F4DB4FF0006101EB90
:10184000C5204A14114900F023F804E0224651460D
:10185000404600F01DF8A74200D10FE06D1C4FF08C
:1018600000090AEB440AA044381B87B2B7F5806F21
:1018700002DD4FF4806400E03C46B0E700BFFFF7B4
:10188000FDF800BF9BE7000000000808C00700202B
:101890002DE9F04105460E461746002407E036F8CC
:1018A00014102846FFF7F4F8AD1C601C84B2BC424B
:1018B000F5DBBDE8F081704710B500F001F810BD10
:1018C0000CB50020019000903348006840F480304F
:1018D0003149086000BF3048006800F400300090D3
:1018E0000198401C0190009818B90198B0F5A06FBC
:1018F000F1D12948006800F4003010B101200090B7
:1019000001E0002000900098012843D1234800689E
:1019100040F01000214908600846006820F00300EC
:1019200008600846006840F0020008601A484068F5
:10193000194948600846406848600846406840F4D5
:10194000806048600846406820F47C104860084683
:10195000406840F4E81048600846006840F0807035
:10196000086000BF0C48006800F000700028F9D043
:101970000948406820F0030007494860084640686D
:1019800040F00200486000BF0348406800F00C00CF
:101990000828F9D10CBD00000010024000200240D0
:1019A00010B50446A1B24FF0804000F008FA10BD17
:1019B000042808D14FF0E021096941F004014FF0FB
:1019C000E022116107E04FF0E021096921F00401F4
:1019D0004FF0E022116170477047000010B51348C6
:1019E000006840F00100114908600846406810494D
:1019F00008400E494860084600680E4908400B49F7
:101A000008600846006820F48020086008464068A6
:101A100020F4FE0048604FF41F008860FFF74CFF81
:101A20004FF000600449086010BD00000010024043
:101A30000000FFF8FFFFF6FE08ED00E030B589B0CA
:101A400005460C4601210846FFF76AFD01210520E5
:101A5000FFF776FD0120ADF8200018208DF8230057
:101A600003208DF8220008A91848FFF7C1F8ADF847
:101A70001850ADF814400020ADF81A00ADF816006B
:101A800005A94FF0804000F09FF97020ADF80400E8
:101A90000120ADF806000020ADF80C0001A94FF0C0
:101AA000804000F0D7F801A94FF0804000F028F9FD
:101AB0000821C80600F01AF90821C80600F072F9DA
:101AC0000121880700F09FF809B030BD00080140EF
:101AD00010B50121284800F0A2F800284BD00121C0
:101AE000254800F08DF825480078142805DA2348A9
:101AF0000078401C2149087005E001202049087049
:101B000000201E4908701F48007820B11D48007849
:101B1000401E1C4908701C48007820B11A48007803
:101B2000401E1949087019480078962805DA1748A8
:101B30000078401C1549087005E001201449087020
:101B400000201249087013480078462805DA114829
:101B50000078401C0F49087005E001200E4908700C
:101B600000200C4908700D48007820B10B4800781F
:101B7000401E0A49087010BD00040040DA00002031
:101B8000DB000020CA000020DC000020DE00002076
:101B9000DD000020E0000020DF000020CB0000205E
:101BA0007FB505460C4601210220FFF7B9FCADF8D0
:101BB0000850ADF804400020ADF80A00ADF806006A
:101BC00001A90E4800F000F9012211460B4800F06F
:101BD00037F81D208DF8000000208DF8010003204B
:101BE0008DF8020001208DF803006846FFF724FC01
:101BF0000121024800F007F87FBD0000000400400A
:101C0000CA430282704721B1028842F00102028079
:101C100004E002884FF6FE731A400280704730B528
:101C20000246002000230024158A05EA0103958955
:101C300005EA010413B10CB1012000E0002030BD21
:101C40001AB183890B43838102E083898B438381AB
:101C50007047000070B5002400220023058C4FF669
:101C6000FE7635400584028C8388048B4FF68F7591
:101C70002C40B51E2C400D882C43751E2A400D8922
:101C80002A434D882A43144DA8420BD0134DA84235
:101C900008D0134DA84205D0124DA84202D0124DD3
:101CA000A84213D14FF6F7752A404D892A434FF6C3
:101CB000FB752A408D882A434FF6FF652B404FF66F
:101CC000FF552B408D892B43CD892B438380048383
:101CD000CD888586028470BD002C0140003401400F
:101CE0000040014000440140004801400A460021F4
:101CF000018B4FF6F77319401143018370470000C1
:101D000070B5002400220023058C4FF6EF76354095
:101D10000584028C8388048B48F6FF752C404FF6AF
:101D2000FF452C400D884FF6FF7606EA05252C432B
:101D30004FF6DF752A400D8906EA05152A434D88BE
:101D400006EA05152A43154DA84202D0144DA842B3
:101D50001DD14FF67F752A404D894FF6FF7606EA72
:101D600005152A434FF6BF752A408D8806EA0515EA
:101D70002A434FF6FF352B404FF2FF752B408D89DC
:101D800006EA85052B43CD8906EA85052B4383802A
:101D90000483CD880587028470BD0000002C0140BB
:101DA000003401400A460021018B4FF2FF731940B5
:101DB0004FF6FF7303EA02231943018370478186BC
:101DC0007047018770470000002202881D4B98422F
:101DD0000ED01D4B98420BD0B0F1804F08D01B4B5A
:101DE000984205D01A4B984202D01A4B984204D11F
:101DF0004FF68F731A404B881A43174B984207D0FF
:101E0000164B984204D04FF6FF431A40CB881A4332
:101E100002808B8883850B8803850A4B98420BD000
:101E2000094B984208D00E4B984205D00D4B984272
:101E300002D00D4B984201D10B7A03860123838295
:101E400070470000002C01400034014000040040B5
:101E500000080040000C004000100040001400404A
:101E600000400140004401400048014010B50446D4
:101E70002146054800F09BFA00BF8021024800F08F
:101E8000C8F90028F9D010BD0038014010B504464B
:101E900003E02078FFF7EAFF641C20780028F8D1DF
:101EA00010BD000010B540F22551174800F0BEF9F2
:101EB00048B3012015490870134800F073FAC4B202
:101EC0001348144909884454204600F027F8104864
:101ED00010490988405C4B2809D10E480088401EF3
:101EE0000B49085C4F2802D101200B4908700948B2
:101EF0000088401C0749088008460088B0F5487FE4
:101F000001DB0020088010BD00380140CC0000201B
:101F1000B2010020C4000020D300002010B5044608
:101F2000E1B2054800F043FA00BF8021024800F00A
:101F300070F90028F9D010BD0044004010B50446E7
:101F400003E02078FFF7EAFF641C20780028F8D12E
:101F500010BD00001FB5044600F084F800F01EF824
:101F600000940020ADF80400ADF80600ADF80800BC
:101F7000ADF80C000C20ADF80A006946064800F0E8
:101F8000A5F9012240F22551034800F079F9012119
:101F9000014800F032F91FBD0044004008B5684612
:101FA000FEF707FF0820ADF8000004208DF80300BD
:101FB00069460848FEF71CFE0420ADF80000032027
:101FC0008DF8020018208DF8030069460148FEF7DD
:101FD0000FFE08BD0008014010B540F2255113481E
:101FE00000F024F908B3114800F0DCF9C4B210483D
:101FF0001049098844540F490988405C0A2809D1CE
:102000000C480088401E0A49085C0D2802D10120B6
:102010000949087007480088401C0649088008469E
:102020000088F92801DD0020088010BD0044004030
:10203000D2040020C6000020CE00002008B54FF4D6
:10204000E060FFF731FA26208DF8000002208DF8BD
:1020500001008DF8020001208DF803006846FFF7AB
:10206000EBF908BD10B5012144F21500FFF768FA3D
:1020700001210248FFF754FA10BD000002000600DB
:1020800010B50446E1B2054800F091F900BF802187
:10209000024800F0BEF80028F9D010BD004800400A
:1020A00070B504460D4605E02078FFF7E9FF641C93
:1020B000681EC5B2002DF7D170BD00001FB50446E3
:1020C00000F01EF800940020ADF80400ADF8060002
:1020D000ADF80800ADF80C000C20ADF80A00694618
:1020E000064800F0F3F8012240F22551034800F0C1
:1020F000C7F80121014800F080F81FBD00480040EA
:1021000008B56846FEF755FE4FF40060ADF80000D4
:1021100004208DF8030069461548FEF769FD4FF469
:102120008060ADF8000003208DF8020018208DF8C3
:10213000030069460E48FEF75BFD4FF40060ADF802
:10214000000004208DF8030069460A48FEF750FDA0
:102150004FF48060ADF8000003208DF802001820D5
:102160008DF8030069460348FEF742FD08BD0000F4
:1021700000100140000C014010B540F225511048FC
:1021800000F054F8D0B10E4800F00CF9C4B20D487C
:102190000088C0F30D000C490C540A480088401C0C
:1021A0000849088008460088F92801DD00200880D9
:1021B00001200649087002200549087010BD000082
:1021C00000480040C8000020CC050020CF000020BF
:1021D000CA00002008B54FF4E060FFF765F927203A
:1021E0008DF8000001208DF801008DF802008DF8B7
:1021F00003006846FFF720F908BD21B1828942F447
:102200000052828104E082894DF6FF731A40828178
:10221000704702460020B1F5007F00D100BF13884F
:102220000B400BB1012000E00020704770B5024662
:10223000002400230025002040F66A16B14200D198
:1022400000BFC1F3421501F01F03012606FA03F394
:10225000012D02D19689334006E0022D02D1168A63
:10226000334001E0968A33400C12012606FA04F44A
:102270001688344013B10CB1012000E0002070BD7D
:10228000F0B50346002400260025002040F66A171A
:10229000B94200D100BF1846C1F3421401F01F0635
:1022A000012707FA06F5012C01D10C3004E0022CBD
:1022B00001D1103000E014301AB107682F430760D5
:1022C00002E00768AF430760F0BD00002DE9F0476A
:1022D00086B005460E460024A24600BFA146002750
:1022E000B08900B100BF2F462C8A4CF6FF70044025
:1022F000F08804432C82AC894EF6F3100440B08879
:1023000031890843718908430443AC81AC8A4FF694
:10231000FF400440B0890443AC8201A8FFF720F9D4
:102320001F48874202D1DDF810A001E0DDF80CA0C3
:10233000A88900F4004040B10AEBCA0000EB0A1083
:1023400031684900B0FBF1F807E00AEBCA0000EB86
:102350000A1031688900B0FBF1F86420B8FBF0F096
:1023600004012009642101FB1089A88900F40040C0
:1023700040B1322000EBC900B0FBF1F000F00700E3
:10238000044308E0322000EB09106421B0FBF1F0B7
:1023900000F00F0004432C8106B0BDE8F087000078
:1023A0000038014001468888C0F308007047C1F337
:1023B00008028280704700BFFEE7000010B586B0BB
:1023C0000446012144F20D00FFF7BAF84FF4007003
:1023D000ADF8140003208DF8160018208DF81700B2
:1023E00005A92848FEF704FC4FF48060ADF81400FE
:1023F00004208DF8170005A92248FEF7F9FB4020BC
:10240000ADF8140003208DF8160018208DF8170081
:1024100005A91D48FEF7ECFB8020ADF81400042050
:102420008DF8170005A91848FEF7E2FB25208DF866
:10243000000000208DF801008DF8020001208DF8C9
:1024400003006846FEF7F8FF01940020ADF808008D
:10245000ADF80A00ADF80C00ADF810000C20ADF896
:102460000E0001A90948FFF731FF012240F2255172
:102470000648FFF705FF01210448FFF7BEFE06B03E
:1024800010BD000000080140000C01400038014070
:1024900010B50446FFF7E6FDFFF780FD2046FFF785
:1024A00059FDFFF7CBFD10BD10B50446012144F2E4
:1024B0001500FFF745F801210748FFF731F8012122
:1024C0000648FEF721FCFFF71BFE2046FFF7F6FD4E
:1024D000FFF780FE10BD000002000600100014008F
:1024E000014600BF704710B50346002003E00C5CB6
:1024F0001C54441CE0B29042F9DB10BD10B56FF0E3
:102500000400FFF755FA0A4800680A49B0FBF1F0E9
:10251000094908700846007800EB4001C1EBC01083
:102520004FF6FF7101EAC0000449088010BD0000A9
:10253000AC00002000127A00C0000020C200002081
:102540000146114A12884A434FF0E0235A610022A3
:102550009A611A46126942F001021A6100BF4FF0F7
:10256000E022106900F001021AB100F48032002A62
:10257000F5D04FF0E022126922F001024FF0E02383
:102580001A6100229A617047C200002008B5FEF768
:10259000BFFAFFF7B3FFFEF71BFEFEF773F94FF428
:1025A000E130FFF70BFF4FF4E130FFF771FF4FF41D
:1025B0001650FFF779FFFEF738FF41F61F4140F252
:1025C000E730FFF7EDFA502140F6C900FFF736FA81
:1025D0000020FD4908604FF6E070FC490860FCA24D
:1025E0000A215A20FEF757FD4FF4FC60F7490860B6
:1025F000F0234FF4A07228210020FEF77BFCF7A205
:10260000B4214020FEF747FDF7A2B421B820FEF721
:1026100023FD4FF6E070ED4908601022F3A1F84861
:10262000FFF761FF0622F749F748FFF7A9F80020F6
:10263000F44988710A46C8217820FEF70DFDF3A2FF
:10264000C8212820FEF727FD4FF4FC60DF49086011
:10265000F1A2C821A820FEF7FFFC0722F0A1F24852
:10266000FFF741FF0722F1A1F248FFF73CFF71E2BB
:10267000FDF7A8FEF048007850B30020EE4908703E
:10268000EE48007888B10020EC4908704FF4004112
:10269000EB48FEF78AFB4FF6E0704C23D4223C2136
:1026A0000090C420FEF746FC0EE00120E3490870CC
:1026B000C103E348FEF77BFB00204C23D4223C21DE
:1026C0000090C420FEF736FC0821DE48FFF7E8FC46
:1026D00000F0BAFBDC48007801280ED0DB48007817
:1026E00001280AD0DA480078012806D04FF4487251
:1026F000D8A1DA48FEF7E3FE18B10120D8490860F6
:1027000002E00020D64908604FF44872D5A1D348B2
:10271000FEF7D5FE68B10722D7A1C348FFF7E3FE55
:102720000120D74908604FF47A718007FFF749FB11
:1027300071E04FF44872D3A1C848FEF7C0FE68B1FB
:102740000020CF49086000214FF08040FFF739FB9F
:102750000722B3A1B448FFF7C6FE5CE04FF448720D
:10276000CDA1BE48FEF7ABFE38B30722CFA1B148DA
:10277000FFF7B9FE0020C2491039086040F26540F9
:10278000FFF70EF90020CB4908604FF47A70FFF78D
:10279000D7FE4FF47A70FFF7D3FE4FF47A70FFF74D
:1027A000CFFE4FF47A70FFF7CBFE4FF47A70FFF74D
:1027B000C7FE0020FFF7F4F82DE04FF44872BEA1E9
:1027C000A648FEF77CFE30B3072298A19948FFF790
:1027D0008AFE0120AA491039086040F26540FFF7DF
:1027E000DFF80120B34908604FF47A70FFF7A8FEC4
:1027F0004FF47A70FFF7A4FE4FF47A70FFF7A0FE53
:102800004FF47A70FFF79CFE4FF47A70FFF798FE52
:102810000020FFF7C5F84FF44872ACA18F48FEF7CF
:102820004EFE002855D00020AB4908604BE08B4895
:10283000A9490968405C632840D18849A6480068D6
:10284000401C085C652839D1A3480068801C085CDE
:10285000662833D1A0480068C01D085C694908702B
:102860007E499D4800680830085C664948707B498D
:10287000994800680930085C624988707749964831
:1028800000680A30085C5F49C87074499248006863
:102890000B30085C5B49087170498F4800680C3048
:1028A000085C584948710A46C8217820FEF7D4FBD5
:1028B000062254495448FEF777FF09E0864800682D
:1028C000401C8549086084480068B0F5487FAEDB4D
:1028D00000BF82480078002875D081480078002821
:1028E00071D17E4908707F4800797F4908600846A9
:1028F0000068000208607B484079096808437A490B
:102900000860084600680002086076488079096817
:10291000084375490860FDF743FD73480068734933
:10292000B0FBF1F03030724908706F48006842F235
:102930001071B0FBF1F00A21B0FBF1F201FB1200C3
:1029400030306B494870684800684FF47A71B0FBCA
:10295000F1F00A21B0FBF1F201FB120030306449C2
:102960008870614800686421B0FBF1F00A21B0FB77
:10297000F1F201FB120030305D49C8705A4800681E
:102980000A21B0FBF1F0B0FBF1F201FB1200303094
:1029900057490871544800680A21B0FBF1F201FB65
:1029A0001200303052494871002088714FF6E070B3
:1029B000064908604E4AB4218020FEF74DFB00F026
:1029C000EDF81E2296E0C5E00C0100201001002069
:1029D000B9E2D5D5BCE0B2E200000000B9E2D5D53D
:1029E000B6C8A3BA000000004C5558004877646987
:1029F0006530323036202020202020540000000096
:102A0000800100208F00002000F00708B5B1C7B09A
:102A1000E3D0D6B5A3BA0000204C55580000000002
:102A20006C696768746F66007F0000206D6F746F5B
:102A3000726F660087000020DB0000200800002085
:102A400000100140000000201501002017010020A7
:102A5000160100204552524F52000000B2010020E2
:102A60003C0000204877636967303230376C696713
:102A700068746F6E540000006C696768746F6E0054
:102A8000980122424877636967303230376C696752
:102A900068746F66540000004877636967303230AD
:102AA000376D6F746F726F6E540000006D6F746FCE
:102AB000726F6E00340000204877636967303230EF
:102AC000376D6F746F726F665400000048776365EE
:102AD000663032303600000044000020CF00002075
:102AE000CA000020CC0500200C000020A0860100B8
:102AF0005C00002018A12048FFF7F5FC06221F49C2
:102B00001D480930FFF7EFFC07221D491A480F3016
:102B1000FFF7E9FC07221B4917481630FFF7E3FCD3
:102B20004FF44872AFF2D4011748FEF7C8FC30B931
:102B30004FF4487215A11448FEF7C1FC10B10120F2
:102B4000144908701348007820B91348007808B970
:102B500000F0B2F88CE500004877646965303230E7
:102B6000362020202020202020202020202020204F
:102B70002020202020540000800100205C00002044
:102B80007F00002087000020B2010020434C4F53FB
:102B900045440000170100201601002010B53B48F5
:102BA000007801280AD03A48006838B94FF44872D2
:102BB00038A13C48FEF783FC002866D03A480068FC
:102BC000002849D139493A48FDF722FB00281EDA8E
:102BD00000203849086040F26540FEF7E1FE012020
:102BE000314908604FF47A70FFF7AAFC4FF47A700D
:102BF000FFF7A6FC4FF47A70FFF7A2FC4FF47A704F
:102C0000FFF79EFC4FF47A70FFF79AFC1DE001205D
:102C10002849086040F26540FEF7C2FE01202249C3
:102C200008604FF47A70FFF78BFC4FF47A70FFF76F
:102C300087FC4FF47A70FFF783FC4FF47A70FFF74C
:102C40007FFC4FF47A70FFF77BFC1748006801287F
:102C500002D10020FEF7A4FE14491548FDF7D8FA6A
:102C6000002809DA01201349103108604FF47A7105
:102C70008007FFF7A6F808E000200E491031086031
:102C800000214FF08040FFF79CF810BD1701002095
:102C90003C000020487763747230313034617574C1
:102CA0006F540000B2010020340000208F0000208B
:102CB0005C0000208801224210B50E2254A1584821
:102CC000FFF711FC5748FEF77CF857490870084693
:102CD00000780A280EDA084600780A2190FBF1F203
:102CE00001FB120030304E4948730D2088730A20D2
:102CF000C8731AE04C480078642190FBF1F201FBA4
:102D000012000A2190FBF1F03030454948734648E3
:102D100000780A2190FBF1F201FB120030304049AB
:102D200088730D20C8730A2008743D48FFF706F920
:102D30003B48FFF7ABF81E203C4908704FF6E070A7
:102D40003B49086025E00020374908700EE039480B
:102D500035490978405C3E2803D100203649086097
:102D60000AE031480078401C2F4908702E4800784E
:102D7000324909688842EAD300BF2C48007840B93C
:102D800001202F49087000202B490860FDF7E4FA64
:102D900003E0294800680028D5D100BF2848007802
:102DA000A8BB2848007890BB0120234908601D4833
:102DB000FFF7C4F81B48FFF769F800F0F3F9FDF7D7
:102DC000CBFAFDF7DBFA00201749087009E0002173
:102DD0001348154A1278815413480078401C124950
:102DE0000870114800781428F1DB00200E490870A3
:102DF00009E000200B490C4A127888540A480078F0
:102E0000401C09490870084800783228F1DB10BDE1
:102E100041542B43495053454E443D342C3000001F
:102E20001C0100208001002040000020CB00002079
:102E300010010020B20100202C000020C40000205E
:102E4000170100201601002010B5CD48007810BBF6
:102E50004FF4FC60CB490860CBA2D8217820FEF764
:102E6000FBF8CAA2D8218020FEF7F6F8C7A2D82125
:102E70008820FEF7F1F8C5A2D8219020FEF7ECF8E3
:102E8000C2A2D8219820FEF7E7F8C0A2D821A0203E
:102E9000FEF7E2F8C1E0BA480078012822D14FF4E9
:102EA000FC60B8490860B9A2D8217820FEF7D4F8B0
:102EB000B5A2D8218020FEF7CFF8B4A2D82188206F
:102EC000FEF7CAF8B1A2D8219020FEF7C5F8AFA24C
:102ED000D8219820FEF7C0F8ACA2D821A020FEF798
:102EE000BBF89AE0A6480078022822D14FF4FC6093
:102EF000A4490860A5A2D8217820FEF7ADF8A3A2C6
:102F0000D8218020FEF7A8F89FA2D8218820FEF7BC
:102F1000A3F89EA2D8219020FEF79EF89BA2D8216C
:102F20009820FEF799F899A2D821A020FEF794F8EE
:102F300073E093480078032822D14FF4FC60914954
:102F4000086092A2D8217820FEF786F88FA2D821B7
:102F50008020FEF781F88DA2D8218820FEF77CF82A
:102F600089A2D8219020FEF777F888A2D82198204E
:102F7000FEF772F885A2D821A020FEF76DF84CE08C
:102F80007F480078042822D14FF4FC607D49086016
:102F90007EA2D8217820FEF75FF87CA2D82180207D
:102FA000FEF75AF879A2D8218820FEF755F877A2C3
:102FB000D8219020FEF750F873A2D8219820FEF770
:102FC0004BF872A2D821A020FEF746F825E06C4805
:102FD0000078052821D14FF4FC606A4908606BA293
:102FE000D8217820FEF738F868A2D8218020FEF793
:102FF00033F866A2D8218820FEF72EF863A2D821E4
:103000009020FEF729F861A2D8219820FEF724F835
:103010005DA2D821A020FEF71FF85D4800780128A6
:1030200029D100205A490870C820FFF789FA594869
:1030300053490978405C3038574908700846007891
:10304000002807DB08460078092803DA08460078DC
:10305000401C08705048007830304E49484A127879
:1030600088544FF6E070474908604A4AC8217820E2
:10307000FDF7F2FF82E046480078022829D10020BF
:1030800043490870C820FFF75BFA42483C49097879
:10309000405C30384049087008460078002807DD59
:1030A00008460078092803DC08460078401E0870AE
:1030B0003948007830303749314A127888544FF611
:1030C000E07030490860334AC8217820FDF7C4FF1A
:1030D00054E02F48007803281AD100202C490870AA
:1030E000C820FFF72DFA26480078401E24490870B2
:1030F00008460078002801DA002008704FF6E070DA
:1031000020490860234AC8217820FDF7A5FF35E053
:103110001F48007804281AD100201D490870C820D3
:10312000FFF70EFA16480078401C1549087008464B
:103130000078052801DD052008704FF6E070114980
:103140000860144AC8217820FDF786FF16E0104871
:103150000078052812D100200D490870C820FFF71B
:10316000EFF906220B490D48FEF71EFB00200C4923
:103170000860084AC8217820FDF76EFF10BD0000E6
:103180003A000020100100202D0000002000000067
:10319000140100208F0000203800002000F00708F4
:1031A0003400002010B51E200A49087007E0FFF720
:1031B0004BFEFFF7F3FC0748007800B903E0064830
:1031C00000780028F3D000BF002003490870FDF705
:1031D000C3F810BDCB000020D300002010B546205E
:1031E0000A49087007E0FFF72FFEFFF7D7FC0748F2
:1031F000007800B903E0064800780028F3D000BF4B
:10320000002003490870FDF7A7F810BDCB0000208F
:10321000D3000020000000000000000000000000BB
:103220000000000000000008080808080808000066
:103230001818000000486C24120000000000000074
:10324000000000000000002424247F1212127F12CC
:10325000121200000000081C2A2A0A0C1828282A2A
:103260002A1C080800000022251515152A58545458
:10327000542200000000000C1212120A76252911B7
:10328000916E00000006060403000000000000002C
:10329000000000000040201010080808080808106E
:1032A0001020400000020408081010101010100830
:1032B000080402000000000008086B1C1C6B0808D2
:1032C0000000000000000000080808087F08080847
:1032D00008000000000000000000000000000000E6
:1032E000060604030000000000000000FE000000CD
:1032F00000000000000000000000000000000000CE
:10330000060600000000804040202010100808043D
:10331000040202000000001824424242424242429B
:1033200024180000000000080E0808080808080813
:10333000083E00000000003C4242422020100804E9
:10334000427E00000000003C4242201820404042E3
:10335000221C0000000000203028242422227E208D
:10336000207800000000007E0202021A264040423F
:10337000221C0000000000382402021A26424242A9
:10338000241800000000007E2222101008080808FF
:10339000080800000000003C424242241824424237
:1033A000423C000000000018244242426458404061
:1033B000241C00000000000000001818000000009D
:1033C00018180000000000000000000800000000C5
:1033D000000808040000004020100804020408103F
:1033E000204000000000000000007F0000007F007F
:1033F0000000000000000002040810204020100817
:10340000040200000000003C424246402010100030
:10341000181800000000001C225A555555552D4221
:10342000221C00000000000808181414243C22424A
:1034300042E700000000001F2222221E22424242D8
:10344000221F00000000007C4242010101010142F4
:10345000221C00000000001F22424242424242421F
:10346000221F00000000003F4212121E12120242F0
:10347000423F00000000003F4212121E12120202E0
:10348000020700000000003C2222010101712122FC
:10349000221C0000000000E7424242427E424242BB
:1034A00042E700000000003E080808080808080875
:1034B000083E00000000007C1010101010101010CA
:1034C0001010110F0000007722120A0E0A121222A9
:1034D000227700000000000702020202020202023C
:1034E000427F000000000077363636362A2A2A2A24
:1034F0002A6B0000000000E346464A4A52525262DC
:10350000624700000000001C22414141414141410D
:10351000221C00000000003F424242423E020202E2
:10352000020700000000001C2241414141414D536F
:10353000321C60000000003F4242423E1212222232
:1035400042C700000000007C4242020418204042B2
:10355000423E00000000007F4908080808080808EB
:10356000081C0000000000E7424242424242424240
:10357000423C0000000000E74242222424141418B8
:10358000080800000000006B49494949555536229A
:1035900022220000000000E74224241818182424E6
:1035A00042E70000000000772222141408080808EF
:1035B000081C00000000007E2120101008040442B6
:1035C000423F0000007808080808080808080808B2
:1035D00008087800000002020404080808101020FF
:1035E00020204040001E101010101010101010105D
:1035F00010101E0000384400000000000000000011
:1036000000000000000000000000000000000000BA
:10361000000000FF0006080000000000000000009D
:1036200000000000000000000000003C427844421E
:1036300042FC0000000000030202021A264242423D
:10364000261A0000000000000000003844020202B8
:10365000443800000000006040404078444242424C
:1036600064D80000000000000000003C427E02021E
:10367000423C0000000000F08808087E08080808A6
:10368000083E0000000000000000007C22221C0216
:103690003C42423C000000030202023A46424242DF
:1036A00042E700000000000C0C00000E08080808AB
:1036B000083E0000000000303000003820202020AC
:1036C0002020221E0000000302020272120A1612BB
:1036D000227700000000000E080808080808080803
:1036E000083E0000000000000000007F92929292CD
:1036F00092B70000000000000000003B464242423A
:1037000042E70000000000000000003C424242424C
:10371000423C0000000000000000001B2642424224
:10372000221E0207000000000000007844424242CE
:10373000447840E000000000000000774C040404DE
:10374000041F0000000000000000007C42023C401A
:10375000423E0000000000000008083E080808087B
:1037600008300000000000000000006342424242B6
:1037700062DC000000000000000000E74224241486
:103780000808000000000000000000EB4949555502
:103790002222000000000000000000762418181803
:1037A000246E000000000000000000E74224241402
:1037B00018080807000000000000007E221008081A
:1037C000447E000000C02020202020102020202047
:1037D0002020C00010101010101010101010101029
:1037E000101010100006080808080810080808083B
:1037F000080806000C32C2000000000000000000B3
:1038000000000000000104020802E83F0008400830
:103810008F040805080208058808481028101400BD
:10382000E27F0000D5E2F80F08080808F80F080842
:103830000808F80F0000FF7F80008800881F8800BC
:103840009400A200C17FCAC7000000000000000071
:10385000000000000000FF7F0000000000000000EA
:103860000000000000000000D2BB20002000F00F8C
:1038700018042602C001B80E87708000FE3F800049
:10388000900488088410A2204000CCF50020E42396
:103890002822282AA12AA22AA22AA82AA82AA42AB7
:1038A000A72A84204421442224281010B2E20014C4
:1038B000042408240804E07F00040F04E8078804B7
:1038C00088088808A8089853E85040600040CAD487
:1038D0000000E23F04020402C01F00110711E47F50
:1038E00004000400C41F441054104C10C41F4010A6
:1038F000D3EF100010000800F81F04100210F91197
:103900000811081108110811F81108110010000A17
:103910000004BEE4000008000800080008000800D9
:103920000800080008000800000000000800080067
:1039300000000000A3A140008000FE7F0240112192
:1039400020012001080110011001FF7F80024004C6
:10395000200818100620CAB500041F04100A120A15
:1039600012119220525F3E0020222024B8242715F5
:1039700022112008D47F0800D1E9000000000000D7
:10398000FC1F00000000000000000000000000001C
:103990000000FF7F000000000000B6FE00010402EE
:1039A0000802E83F000840088F040805C41F4410BF
:1039B000C41F4410D41F4C1044144008C7EB00002F
:1039C000E21F040884050002E03F27222422E43F8E
:1039D00024222422E43F2422242A2A10F17FCDA885
:1039E000000804080808E87F000800084F08880855
:1039F000880808080808080A08041400E27F000084
:103A0000B9FD80008000FC1F84108410FC1F800022
:103A10008000FE3F82208220FE3F822080008000C6
:103A20008000B4AE00000000FC1F0410041004105D
:103A30000410041004100410041004100410FC1FDF
:103A400004100000BFDA0000E23F24222422A02F4D
:103A500020222722E43F2420A42FA428B428AC2F1E
:103A6000242020281010B5F700140424082408048A
:103A7000E07F00040F04E807880488088808A80885
:103A80009853E85040600040CAD400043E04220429
:103A90002204223F3E24222422243E2422242224C3
:103AA000222272220F2180144008D6FA0008001F3B
:103AB000FC0080008000FC1F800080008000FF7FF1
:103AC0008000800080008000A0004000CAD68000F6
:103AD000880888104400FC3F40002000E01F501080
:103AE00090108808080504020205C0183860B7A2C3
:103AF000401084108808E83F000200020F02E87FAF
:103B0000080208050809881048101400E27F000028
:103B1000CBCD10041004FF7F100480008000F80F4C
:103B2000880888088808FF7F4001200210040C18CC
:103B30000360D3A2400080008000FF7F08080808CF
:103B400010041004200240018000400120021004F3
:103B50000C180360CEC440008000FE7F02400120AC
:103B6000F807000200018000FF7F800080008000D5
:103B70008000A0004000D7D608020802FC7E12098F
:103B8000A11010081008C87F0C088A080909080944
:103B900008080808080A0804B7FB00000000000035
:103BA0000000000000000000000000000000000015
:103BB0000C000C00080004000000A3AC080810086A
:103BC00010040000FE3F1004100410041004FF7FD6
:103BD000100410040804080404040204B2A200083B
:103BE0002008440884088408040804080404040421
:103BF00004042402140A0C11842040402040D2D432
:103C00000000FC1F04100410E413241224122412D8
:103C100024122412E41304100410FC1F04100000EA
:103C2000BBD8400040004000FE3F200090008800CC
:103C30008400FC1F80008000FF7F800080008000E7
:103C40008000B3B508010801081F88105F08A83F6D
:103C5000882498248C248B24E87F080A080A0811F9
:103C60008A206440BBBB1000903F08000400120093
:103C70001000C87F0C040A0409040804080408049E
:103C8000080408050802D0D0080408040404E47FEE
:103C900022041F04883F04000200BF3F82208020CE
:103CA000B8208720823F8020BDE10000FC3F042037
:103CB0000420FC3F0400040FF4008400840FF4008F
:103CC0008400841FFA408240017FCEB200000000D1
:103CD000FE3F0000000000000000FC1F000000008C
:103CE000000000000000FF7F00000000C8FD000091
:103CF0000000FE3F222222222222222222221222FF
:103D0000123C0A2006200220FE3F02200000CBC405
:103D10000000C41F48104810C11F42104210C81FA5
:103D20000800E43F2725242524252425F47F0000CE
:103D3000CEC20000E41F28102810E11F221022101C
:103D4000E81F880484049724A414C40C8404F47F1A
:103D50000000CAAA80000001FC7F44044404FC3F28
:103D600044044404C4070400F40F240842048203FA
:103D7000610C1C70B6C880008410881090089004F4
:103D80008000FF7F20022002200220021042104209
:103D90000842047C0300B9E20000BE3F2222222236
:103DA00022222229BE10223F2221222122213E3F0F
:103DB0000000121122222122D5D58000800080002F
:103DC0008000800080004001400120022002100499
:103DD00010040808041002200140C8CB1002100291
:103DE00010020802E83F0C020C070A07890A880A39
:103DF0004812A82F1842080208020802CCE5080061
:103E00000800843F240422041F040804040402045C
:103E10003F040204000438040704C27F0000BAEC27
:103E200008020802080208027C024406420A421202
:103E300025222822100210020802040202020102B6
:103E4000CDE240004000FF7F20002000F00F10086E
:103E50001808F40F12081108F00F10081008100AC3
:103E60001004D3D00000FC0F400040004000400090
:103E7000FE3F200120012001100110010821042132
:103E8000023E0100CEDE0000000000000000000045
:103E900000000000000000000C000C0000000C00FE
:103EA0000C0000000000A3BA0600892F69303620FC
:103EB0001020180018001800180018001800100032
:103EC00030206010800F0000A1E6000018202410B0
:103ED0002408240424022401980040062009100923
:103EE00008090409020900060000A3A51002100237
:103EF0001002C81F08020C01EC7F0A018900C81FCC
:103F0000081088080805080208040804B4AB001467
:103F10000024FC7F0404F4250424F4151419144926
:103F2000F25502620141800012211248E14FB8D0DF
:103F300000007C3E442244227C3E80048008FF7FB7
:103F4000400130060C1803607C3E442244227C3E33
:103F5000C6F7800084108810900890048000FE1F2F
:103F6000001000100010FC1F001000100010FE1FB9
:103F70000010B5B1080810081004FF7F00007C1085
:103F8000441244127C12441244127C124410441015
:103F900054142408C7B00400E83F00210225022978
:103FA000FA2F02217225522572250223622A1A2D28
:103FB000822842200230E3D010021002F03F0802B3
:103FC0000802CC1F4C10CA1F4910C81F4810C81F38
:103FD00048104810F87F0800D6B500000000000027
:103FE0000000000000000000000000000C000C00B9
:103FF00000000C000C0000000000A3BA8000841038
:104000008810900890048000FF7F20022002200288
:104010002002104210420842047C0300B9E2000072
:10402000BE3F2222222222222229BE10223F22210A
:10403000222122213E3F0000121122222122D5D529
:1040400020022402243E240224092411A41020006A
:104050000000FC1F2412241224122412FF7F0000EF
:10406000BCE00020E4232822282AA12AA22AA22A8E
:10407000A82AA82AA42AA72A842044214422242842
:104080001010B2E20000C41F48104810C11F4210B7
:104090004210C81F0800E43F272524252425242595
:1040A000F47F0000CEC20000E41F28102810E11F9A
:1040B00022102210E81F880484049724A414C40C3E
:1040C0008404F47F0000CAAA80000001FC7F44043D
:1040D0004404FC3F44044404C4070400F40F2408CF
:1040E00042048203610C1C70B6C800000C41000839
:1040F000000000201C0100006C010008284200089C
:104100001C010020041500008801000801030000C4
:104110000002C40B000000000000000000000000CE
:10412000020000000000000000000000000000008D
:10413000000000000000000000000000010000007E
:10414000000000000000000001000000000000006E
:10415000000000000000000000000000000000005F
:10416000000000000000000000000000000000004F
:10417000000000000000000000000000000000003F
:10418000000000000000000000000000000000002F
:10419000000000000000000000000030303030302F
:1041A00030000000000000000030303030303000BF
:1041B000303030303030000000A24A0400000000EF
:1041C00000000000010203040607080900000000C7
:1041D00000000000000000000000000000000000DF
:1041E00000000000000000000000000000000000CF
:1041F0000001020304010203040607080902040681
:104200000800000000000000B63C00009D2B0000EC
:104210008C00000092000000000000000000000080
:08422000000100000000000095
:04000005080001CD21
:00000001FF
