:020000040800F2
:1000000010160020CD010008A5130008510D0008AE
:10001000A1130008CF0200081B2300080000000005
:10002000000000000000000000000000331800087D
:10003000E506000800000000391400084519000812
:10004000E7010008E7010008E7010008E7010008F0
:10005000E7010008E7010008E7010008E9060008D9
:10006000E7010008E701000831070008E701000880
:10007000E7010008E7010008E7010008E7010008C0
:10008000E7010008E7010008E7010008E7010008B0
:10009000E7010008E7010008E70100087907000808
:1000A000E7010008E7010008E7010008E701000890
:1000B000E70100083D1A0008E7010008E701000811
:1000C000E7010008E7010008E7010008E701000870
:1000D000E7010008091E00083D1F0008DD20000898
:1000E000E7010008E7010008E7010008E701000850
:1000F000E7010008E7010008E7010008E701000840
:10010000E7010008E7010008E7010008E70100082F
:10011000E7010008E7010008E7010008E70100081F
:10012000E7010008E7010008E7010008E70100080F
:1001300000F002F800F03AF80AA090E8000C8244BF
:100140008344AAF10107DA4501D100F02FF8AFF29C
:10015000090EBAE80F0013F0010F18BFFB1A43F0A5
:1001600001031847304A0000504A0000103A24BFEB
:1001700078C878C1FAD8520724BF30C830C144BF0C
:1001800004680C607047000000230024002500264E
:10019000103A28BF78C1FBD8520728BF30C148BFEA
:1001A0000B6070471FB51FBD10B510BD00F033F8D0
:1001B0001146FFF7F7FF02F09BF900F051F803B486
:1001C000FFF7F2FF03BC02F03DF900000948804749
:1001D00009480047FEE7FEE7FEE7FEE7FEE7FEE729
:1001E000FEE7FEE7FEE7FEE704480549054A064B41
:1001F0007047000049190008310100081010002064
:1002000010160020101200201012002070477047B6
:10021000704770477047754600F028F8AE460500F5
:100220006946534620F00700854618B020B5FFF711
:10023000DBFFBDE820404FF000064FF000074FF015
:1002400000084FF0000B21F00701AC46ACE8C009F4
:10025000ACE8C009ACE8C009ACE8C0098D467047FD
:100260000446AFF300802046FFF7A9FF004870471F
:10027000B00F00202DE9F04104460D4616461F46FA
:100280002A2000F051FFC4F3072000F041FFE0B244
:1002900000F03EFFC6F3072000F03AFFF0B200F096
:1002A00037FF2B2000F040FFC5F3072000F030FFA0
:1002B000E8B200F02DFFC7F3072000F029FFF8B2E5
:1002C00000F026FF2C2000F02FFFBDE8F08100BFDA
:1002D000FEE70000002000BF03E00021044A1154A3
:1002E000401CB0F5487FF8D30021024A11807047C6
:1002F000A2010020B4000020002000BF03E0002184
:10030000044A1154401CFA28F9D30021024A1180F2
:1003100070470000C2040020B6000020002000BF8B
:1003200003E00021044A1154401CFA28F9D30021AB
:10033000024A118070470000BC050020B800002070
:1003400010B577480078002866D076A228210120D1
:1003500000F040FE73A23A21012000F03BFE77A09E
:1003600001F09EFD79A001F043FD7BA22821012030
:1003700000F030FE4FF47A7002F094F84FF47A7087
:1003800002F090F84FF47A7002F08CF84FF47A7023
:1003900002F088F84FF47A7002F084F84FF47A7023
:1003A00002F080F8FFF796FF00207049087070A0F7
:1003B00001F076FD73A001F01BFD5AA22821012057
:1003C00000F008FE57A23A21012000F003FE71A2BE
:1003D0002821012000F0FEFD03F08EF8714800781E
:1003E000002819D000204E49087001206E4908707D
:1003F0004CA2282100F0EEFD4AA23A21012000F093
:10040000E9FD6AA22821012000F0E4FD6CA001F0C2
:1004100047FD00206E49087063480078002841D0ED
:1004200040A23A21012000F0D5FD3EA24C2101203E
:1004300000F0D0FD67A23A21012000F0CBFD69A0B9
:1004400001F02EFD6CA001F0D3FC03F071F81E202A
:1004500002F028F853480078A8B170A001F020FD00
:100460000020514908702FA24C21012000F0B2FD5C
:100470006EA23A21012000F0ADFD01207149087003
:1004800000205349087052480078401C50490870B9
:1004900008460078212805DD00206A4908700120FF
:1004A0001F49087067480078002838D066A001F01E
:1004B000F7FC6AA001F09CFC03F01EF819A24C2185
:1004C000012000F087FD69A24C21012000F082FD8F
:1004D0006AA001F0E5FC6DA001F08AFC03F00CF8C5
:1004E0003048007860B100203949087055490870DB
:1004F00071A24C21012000F06DFD75A001F0D0FC2F
:1005000033480078401C32490870084600780328B8
:1005100005DD01202449087000204A49087010BDFB
:100520000501002020202020202020202020202025
:10053000202020202020202000000000D6D8C6F453
:10054000C4A3BFE92E2E2E0D0A00000041542B52E9
:1005500053540D0A000000005265736574207769DA
:100560006669206D6F64652E2E2E0000C30000208A
:10057000C9E8D6C3B9A4D7F7C4A3CABD2E2E2E0D81
:100580000A00000041542B43574D4F44453D330D65
:100590000A000000736574696E67206D6F64652ED4
:1005A0002E2E2E00BB000020060100207365742053
:1005B0006D6F64652073756363657373000000007D
:1005C000C9E8D6C3C4A3CABDB3C9B9A60D0A000001
:1005D00008010020436F6E6E6563742057494649D9
:1005E0002E2E2E00C1ACBDD3D2D1D6AA57694669F2
:1005F0002E2E2E0D0A00000041542B43574A415025
:100600003D22574946495F313030222C2231323366
:100610003435363738220D0A00000000C1ACBDD396
:1006200077696669B3C9B9A60D0A0000436F6E6E9B
:1006300065637420576946692073756363657373D6
:100640000000000007010020C6F4B6AFB6E0C4A366
:10065000BFE9C1ACBDD32E2E2E0D0A0041542B4351
:1006600049504D55583D310D0A000000436F6E6EE4
:1006700065637420536572762E2E2E00C1ACBDD3F7
:10068000B7FECEF1C6F72E2E2E0D0A0041542B4395
:10069000495053544152543D342C22544350222C3F
:1006A000223139322E3136382E312E323030222C52
:1006B000363030300D0A0000436F6E6E6563742073
:1006C0005365727620737563636573730000000071
:1006D000C1ACBDD3B7FECEF1C6F7B3C9B9A60D0AFA
:1006E000000000007047000010B5142001F0DAFE91
:1006F00002210C4800F00EFB38B94FF400710A4893
:1007000000F011FB012009490870022000F0E4F814
:10071000022001F0C7FE4FF40071034800F005FB12
:1007200010BD000000080140000C01400401002041
:1007300010B5142001F0B6FE10210C4800F0EAFAC2
:1007400038B94FF400710A4800F0EDFA0520094964
:100750000870102000F0C0F8022001F0A3FE4FF452
:100760000071034800F0E1FA10BD000000080140EC
:10077000000C01400401002010B5142001F092FE8D
:1007800040211C4800F0C6FA38B94FF400711A48ED
:1007900000F0C9FA0220194908702021154800F01C
:1007A000B9FA38B94FF40071134800F0BCFA0320CD
:1007B0001249087080210F4800F0ACFA38B94FF4A4
:1007C00000710D4800F0AFFA04200C490870402079
:1007D00000F082F8202000F07FF8802000F07CF804
:1007E000022001F05FFE4FF40071034800F09DFA13
:1007F00010BD000000080140000C01400401002071
:100800000EB500F0A7FA0121084600F057FE0020BF
:100810008DF808000C208DF8090001208DF80A00E1
:1008200001A800F05FF80121002000F07FF902200C
:10083000019001A800F056F80421002000F076F99C
:100840001020019001A800F04DF80521002000F0D3
:100850006DF92020019001A800F044F80621002045
:1008600000F064F94020019001A800F03BF8072156
:10087000002000F05BF98020019001A800F032F820
:1008800007208DF8000003208DF8010002208DF86C
:10089000020001208DF80300684600F08BFD0A205D
:1008A0008DF8000003208DF8010001208DF8020072
:1008B0008DF80300684600F07DFD17208DF80000DC
:1008C00003208DF801008DF8020001208DF803004F
:1008D000684600F06FFD0EBD0149086070470000DA
:1008E00014040140002123498279002A3AD00A46A3
:1008F000126803689A430B461A600A1D126803685F
:100900009A430B1D1A60027911440A6803681A435E
:100910000A60184A0832126803689A43154B083374
:100920001A601A1D126803689A43124B0C331A603E
:100930004279102A0ED11A1F126803681A430D4B10
:1009400008331A601A1D126803681A43094B0C33E6
:100950001A600DE00749427911440A6803681A4396
:100960000A6005E0027911440A6803689A430A6044
:10097000704700000004014030B5044604254FF4E0
:10098000302000F06FF80546042D17D10C4800699F
:1009900040F002000A49086108464461006940F0DD
:1009A000400008614FF4302000F05CF80546044830
:1009B000006941F6FD71084001490861284630BDD3
:1009C0000020024004200B49C96801F0010109B16F
:1009D00001200EE00749C96801F0040109B10220B5
:1009E00007E00449C96801F0100109B1032000E0E3
:1009F00004207047002002400348006940F0800056
:100A000001490861704700000020024070B50446AB
:100A10000D460426F00200F025F80646042E11D1FA
:100A20000948006940F00100074908612580F0028B
:100A300000F018F806460448006941F6FE710840C7
:100A400001490861304670BD002002400248034958
:100A50004860034848607047230167450020024012
:100A6000AB89EFCD00B502460423FFF7ABFF034689
:100A700003E0FFF7A7FF0346521E012B01D1002A16
:100A8000F7D102B90523184600BD000008B5684635
:100A900000F04DF90121142000F010FD4FF400404A
:100AA000ADF8000003208DF8020010208DF803003F
:100AB00069461C4800F05AF80C20ADF800000320ED
:100AC0008DF8020010208DF803006946154800F0EB
:100AD0004DF80120ADF8000003208DF80200102031
:100AE0008DF803006946104800F040F84020ADF84A
:100AF000000003208DF8020010208DF803006946E5
:100B0000084800F033F80120ADF8000003208DF80C
:100B1000020010208DF803006946024800F026F814
:100B200008BD0000001001400008014030B500225F
:100B30008B071C0F0F2303FA04F20B4B8C1053F896
:100B400024309343084C8D1044F8253023468C10F4
:100B500053F824308C07240F00FA04F42343024C8A
:100B60008D1044F8253030BD080001402DE9F041DA
:100B7000024600250026002000230024002791F8CB
:100B800003C00CF00F0591F803C00CF0100CBCF181
:100B9000000F03D091F802C04CEA050591F800C09F
:100BA000BCF1000F31D0146800202BE04FF0010C95
:100BB0000CFA00F3B1F800C00CEA03069E4220D103
:100BC00083004FF00F0C0CFA03F7BC4305FA03FC4B
:100BD0004CEA040491F803C0BCF1280F06D14FF091
:100BE000010C0CFA00FCC2F814C00AE091F803C032
:100BF000BCF1480F05D14FF0010C0CFA00FCC2F813
:100C000010C0401C0828D1D31460B1F800C0BCF15A
:100C1000FF0F34DD546800202EE000F1080C4FF087
:100C2000010808FA0CF3B1F800C00CEA03069E4272
:100C300021D183004FF00F0C0CFA03F7BC4305FAE7
:100C400003FC4CEA040491F803C0BCF1280F05D161
:100C500000F1080C08FA0CF8C2F8148091F803C0EF
:100C6000BCF1480F07D100F1080C4FF0010808FA59
:100C70000CF8C2F81080401C0828CED35460BDE8A0
:100C8000F0810000F0B50A46002300240021002571
:100C900000F00046B6F1004F02D11D4EF16901E0AF
:100CA0001B4E7168C0F3034583B200F44016B6F5DD
:100CB000401F08D121F07061154E766826F07066ED
:100CC000134F7E6012E000F48016B6F5801F06D147
:100CD000032606FA05F4A14341F0706106E0460DD3
:100CE000360103FA06F6B14341F0706122B1460DB8
:100CF000360103FA06F6314300F00046B6F1004F24
:100D000002D1034EF16101E0014E7160F0BD0000BF
:100D1000000001400246002093680B400BB1012007
:100D200000E00020704741617047016170474FF655
:100D3000FF710180022181700421C1707047024659
:100D4000002100E0491C505C0028FBD1C8B270476C
:100D500000BFFEE708B50121042000F0AFFBF22040
:100D6000ADF8000048208DF8030069460148FFF700
:100D7000FDFE08BD0008014070B50646EF2340F2B5
:100D80003F1200210846FFF775FA002408E000250D
:100D900003E0304600F0ACF96D1CF02DF9D3641C73
:100DA000B4F5A07FF3D370BD2DE9FF4F85B0814628
:100DB0008A460020049003900798A0EB0905089844
:100DC000A0EB0A06CDF80890CDF804A0002D01DDB7
:100DD000012705E00DB9002702E04FF0FF376D4213
:100DE000002E02DD4FF0010806E016B94FF00008B2
:100DF00002E04FF0FF387642B54201DD2C4600E0BC
:100E000034464FF0000B1DE0DDE9011000F020F842
:100E10000498284404900398304403900498A04216
:100E200005DD0498001B0490029838440290039852
:100E3000A04205DD0398001B0390019840440190F7
:100E40000BF1010B601C8345DED909B0BDE8F08FC2
:100E500070B504460D462B46224629462046FFF72C
:100E600009FA0248006800F043F970BD0001002053
:100E70002DE9F04104460D4616461F462B463246E4
:100E800029462046FFF790FF3B462246294620464A
:100E9000FFF78AFF3B46324639462046FFF784FF7C
:100EA0003B46324629463046FFF77EFFBDE8F081DB
:100EB0002DE9F04704460D4616461F46DDF820A0F2
:100EC0003B46324629462046FFF7D4F9A8460AE0B9
:100ED000A14604E0504600F00BF909F10109B145C3
:100EE000F8D908F10108B845F2D9BDE8F08700004B
:100EF0002DE9F84F05460F4616469A46AB4632484E
:100F000000680090B5F5987F01D8E02F01D9BDE8C1
:100F1000F88FA6F12000C6B207F10F03EA1D39468B
:100F20002846FFF7A7F9BAF1000F29D1002424E0E1
:100F300004EB0610254911F800904FF0000815E069
:100F400009F0010018B120490098086003E020482A
:100F500000681D4908601C48006800F0C9F84FEAA5
:100F600069096D1C08F1010000F0FF08B8F1080FD5
:100F7000E6DB5D467F1C601CC4B2102CD8DB1EE093
:100F800000241AE004EB0610104911F800904FF00D
:100F900000080DE009F0010020B1391905EB080047
:100FA000FFF756FF4FEA690908F1010000F0FF085A
:100FB000B8F1080FEEDB601CC4B2102CE2DB024972
:100FC0000098086000BFA2E700010020BC3C0008B8
:100FD000FC00002070B505460E46144615E0B5F538
:100FE000987F01D900251036E02E06D9002005464D
:100FF00006464FF47840FFF7BFFE227800233146C3
:101000002846FFF775FF0835641C20780028E6D1D4
:1010100070BD2DE9F04106460F461446002508E054
:1010200006EB05102246394600F008F8A41C681C9F
:10103000C5B220780028F3D1BDE8F0812DE9F84F42
:1010400081468A4615460AF10F0309F10F025146FF
:101050004846FFF70FF94FF0430B20200090002483
:101060003BE004EB04101F4901EB400090F8200026
:101070002978884230D104EB04101A4901EB400072
:1010800090F821006978884226D104EB04101549B4
:1010900001EB400600271BE04FF0000812E030781B
:1010A000012101FA08F1084020B10F48006800F062
:1010B0001FF803E00D48006800F01AF808F101007D
:1010C00000F0FF08B8F1080FE9DB761C781CC7B206
:1010D00000988742E0D302E0641C5C45C1D300BFA6
:1010E000BDE8F88FAC42000800010020FC000020A1
:1010F00010B5044601210548FFF717FEC4F3072089
:1011000000F01EF8E0B200F01BF810BD000C01402A
:1011100010B5044601210348FFF707FE204600F002
:101120000FF810BD000C014010B504460121034822
:10113000FFF7F9FD204600F003F810BD000C014058
:1011400010B50446204600F077FA10BD08B501211D
:10115000082000F0B3F941F20300ADF800001020C0
:101160008DF8030003208DF8020069468B48FFF7D5
:10117000FDFC4FF203018948FFF7D7FD00F018FA94
:1011800002218648FFF7CFFD142001F08BF90221E0
:101190008248FFF7CAFD142001F084F94FF4805112
:1011A0007E48FFF7C2FDCF20FFF7BEFF0020FFF70C
:1011B000AFFFD920FFF7ACFF3020FFF7A9FFED20EC
:1011C000FFF7B2FF6420FFF7A3FF0320FFF7A0FFA4
:1011D0001220FFF79DFF8120FFF79AFFE820FFF71D
:1011E000A3FF8520FFF794FF1020FFF791FF7820E1
:1011F000FFF78EFFCB20FFF797FF3920FFF788FF1F
:101200002C20FFF785FF0020FFF782FF3420FFF737
:101210007FFF0220FFF77CFFF720FFF785FF2020EC
:10122000FFF776FFEA20FFF77FFF0020FFF770FF50
:101230000020FFF76DFFC020FFF776FF2120FFF7AA
:1012400067FFC120FFF770FF1220FFF761FFC52085
:10125000FFF76AFF3220FFF75BFF3C20FFF758FFE4
:10126000C720FFF761FFC120FFF752FF3620FFF7CD
:101270005BFFB820FFF74CFF3A20FFF755FF5520E2
:10128000FFF746FFB120FFF74FFF0020FFF740FFB9
:101290001820FFF73DFFB620FFF746FF0A20FFF7B3
:1012A00037FFA220FFF734FFF220FFF73DFF0020B9
:1012B000FFF72EFF2620FFF737FF0120FFF728FF5B
:1012C000E020FFF731FF0F20FFF722FF2020FFF77C
:1012D0001FFF1E20FFF71CFF0920FFF719FF122038
:1012E000FFF716FF0B20FFF713FF5020FFF710FF4B
:1012F000BA20FFF70DFF4420FFF70AFF0920FFF790
:1013000007FF1420FFF704FF0520FFF701FF23204C
:10131000FFF7FEFE2120FFF7FBFE0020FFF7F8FE9F
:10132000E120FFF701FF0020FFF7F2FE1920FFF791
:10133000EFFE1920FFF7ECFE0020FFF7E9FE122078
:10134000FFF7E6FE0720FFF7E3FE2D20FFF7E0FEA4
:101350002820FFF7DDFE3F20FFF7DAFE0220FFF72F
:10136000D7FE0A20FFF7D4FE0820FFF7D1FE252084
:10137000FFF7CEFE2D20FFF7CBFE0F20FFF7C8FEB4
:101380001120FFF7D1FE782001F08CF82920FFF71B
:10139000CBFE0020FFF7F0FC08BD0000000C014070
:1013A00000BFFEE7704710B54FF4A06000F03AF8B8
:1013B00010BD000070B5002100230F22C47804B3D3
:1013C000154C246804F4E064C4F5E064210AC1F11A
:1013D0000403CA40447804FA03F18478144021439A
:1013E00009010E4C0678A155047804F01F0501246C
:1013F000AC4005786D11AD0005F1E025C5F8004160
:1014000009E0047804F01F050124AC40044D06787F
:10141000761145F8264070BD0CED00E000E400E0D8
:1014200080E100E002490143024A11607047000078
:101430000000FA050CED00E070472DE9F04105468B
:101440000B46164600240022002100201F4601E022
:101450007F1C521C97F800C0BCF1000FF8D100248B
:1014600016E000210CE005EB040C1CF801C013F899
:101470000180C44501D1012001E0002002E0491CA7
:101480009142F0D300BF914201D1BDE8F081641CCC
:10149000A6EB020CA445E4D800BFF6E729B1064A42
:1014A000D2690243044BDA6104E0034AD269824301
:1014B000014BDA61704700000010024029B1064A72
:1014C00092690243044B9A6104E0034A92698243A1
:1014D000014B9A61704700000010024030B50021B6
:1014E0000022002400232D4D6D6805F00C0121B170
:1014F000042905D0082923D105E0294D056022E003
:10150000274D05601FE0254D6D6805F47012234DD1
:101510006D6805F48034022505EB92421CB9214D1B
:10152000554305600BE01D4D6D6805F400351DB198
:101530001C4D5543056002E0194D5543056002E01E
:10154000174D056000BF00BF144D6D6805F0F00138
:101550000909154D6B5C0568DD4045600F4D6D68F0
:1015600005F4E061090A104D6B5C4568DD4085605B
:101570000A4D6D6805F46051C90A0B4D6B5C4568F6
:10158000DD40C560054D6D6805F44041890B074D90
:101590006B5CC568B5FBF3F5056130BD001002401A
:1015A00000127A0000093D00D1000020E100002077
:1015B00000B587B001210820FFF780FF01218803D3
:1015C000FFF76CFF4FF46040ADF8180018208DF85D
:1015D0001B0003208DF81A0006A91548FFF7C6FA6C
:1015E0000020ADF804004FF48270ADF80600002032
:1015F000ADF808000220ADF80A000120ADF80C009B
:101600004002ADF80E000020ADF81000ADF8120059
:101610000720ADF8140001A9064800F051F8012197
:10162000044800F033F8FF2000F006F807B000BDD2
:10163000000C01400038004070B50546002405E06C
:10164000601CC4B2C82C01DD002070BD02210E4810
:1016500000F028F80028F3D029460B4800F02EF8B7
:10166000002405E0601CC4B2C82C01DD0020ECE7BA
:101670000121054800F016F80028F3D0024800F0D8
:101680001AF8C0B2E1E700000038004021B102883A
:1016900042F04002028004E002884FF6BF731A4015
:1016A000028070470246002013890B400BB10120D5
:1016B00000E00020704701468889704781817047AB
:1016C00010B50022028802F441520B884C88234353
:1016D0008C882343CC8823430C8923434C892343A0
:1016E0008C892343CC8923431A430280838B4FF296
:1016F000FF74234083830B8A038210BD30B50346F9
:101700000C461546002207E0184600F008F824F8B9
:1017100012009B1C501C82B2AA42F5DB30BD014670
:10172000088870472DE9F05F80468A461746B8F171
:10173000006F02D33348804501D3BDE8F09FFFF727
:1017400085F9A8F1006B4FEADB25CBF34909C9F510
:101750008064A74200DC3C464DE04FF0006101EBA5
:10176000C5204A142849FFF7C9FF00260BE009EB02
:101770000600254931F810004FF6FF71884200D06D
:1017800003E0701C86B2A642F1DB00BFA6421BDA62
:101790004FF0006101EBC520FFF7EEF8002608E0EE
:1017A0003AF8160006EB0901174A22F81100701CDE
:1017B00086B2A642F4DB4FF0006101EBC5204A146B
:1017C000114900F023F804E022465146404600F05B
:1017D0001DF8A74200D10FE06D1C4FF000090AEB85
:1017E000440AA044381B87B2B7F5806F02DD4FF47E
:1017F000806400E03C46B0E700BFFFF7FDF800BFA3
:101800009BE7000000000808B00700202DE9F04128
:1018100005460E461746002407E036F81410284601
:10182000FFF7F4F8AD1C601C84B2BC42F5DBBDE8E8
:10183000F081704710B500F001F810BD0CB5002024
:10184000019000903348006840F4803031490860CE
:1018500000BF3048006800F4003000900198401C40
:101860000190009818B90198B0F5A06FF1D12948FE
:10187000006800F4003010B10120009001E0002069
:1018800000900098012843D12348006840F01000E0
:10189000214908600846006820F0030008600846F7
:1018A000006840F0020008601A4840681949486022
:1018B0000846406848600846406840F480604860D8
:1018C0000846406820F47C1048600846406840F4B0
:1018D000E81048600846006840F08070086000BF6B
:1018E0000C48006800F000700028F9D009484068F2
:1018F00020F00300074948600846406840F00200B5
:10190000486000BF0348406800F00C000828F9D187
:101910000CBD00000010024000200240042808D145
:101920004FF0E021096941F004014FF0E02211611C
:1019300007E04FF0E021096921F004014FF0E022B7
:10194000116170477047000010B51348006840F0FF
:1019500001001149086008464068104908400E49D6
:101960004860084600680E4908400B490860084670
:10197000006820F4802008600846406820F4FE00DB
:1019800048604FF41F008860FFF754FF4FF000607D
:101990000449086010BD0000001002400000FFF87C
:1019A000FFFFF6FE08ED00E030B589B005460C46B5
:1019B00001210846FFF772FD01210520FFF77EFD9A
:1019C0000120ADF8200018208DF8230003208DF8A9
:1019D000220008A91848FFF7C9F8ADF81850ADF86B
:1019E00014400020ADF81A00ADF8160005A94FF01C
:1019F000804000F09BF97020ADF804000120ADF8A4
:101A000006000020ADF80C0001A94FF0804000F066
:101A1000D7F801A94FF0804000F028F90821C80646
:101A200000F01AF90821C80600F072F901218807B0
:101A300000F09FF809B030BD0008014010B5012149
:101A4000284800F0A2F800284BD00121254800F0DA
:101A50008DF825480078142805DA23480078401CC2
:101A60002149087005E001202049087000201E4926
:101A700008701F48007820B11D480078401E1C499E
:101A800008701C48007820B11A480078401E194997
:101A9000087019480078962805DA17480078401C25
:101AA0001549087005E0012014490870002012490A
:101AB000087013480078462805DA11480078401C61
:101AC0000F49087005E001200E49087000200C49FC
:101AD00008700D48007820B10B480078401E0A4974
:101AE000087010BD00040040CA000020CB00002098
:101AF000BA000020CC000020CE000020CD00002045
:101B0000D0000020CF000020BB0000207FB505469C
:101B10000C4601210220FFF7C1FCADF80850ADF8DA
:101B200004400020ADF80A00ADF8060001A90E48F7
:101B300000F0FCF8012211460B4800F037F81D2098
:101B40008DF8000000208DF8010003208DF80200C0
:101B500001208DF803006846FFF72CFC01210248A4
:101B600000F007F87FBD000000040040CA43028275
:101B7000704721B1028842F00102028004E002882D
:101B80004FF6FE731A400280704730B502460020BF
:101B900000230024158A05EA0103958905EA01045A
:101BA00013B10CB1012000E0002030BD1AB18389CF
:101BB0000B43838102E083898B438381704700005C
:101BC00070B5002400220023058C4FF6FE763540C8
:101BD0000584028C8388048B4FF68F752C40B51ECC
:101BE0002C400D882C43751E2A400D892A434D88B0
:101BF0002A43144DA8420BD0134DA84208D0134DD0
:101C0000A84205D0124DA84202D0124DA84213D1CD
:101C10004FF6F7752A404D892A434FF6FB752A4047
:101C20008D882A434FF6FF652B404FF6FF552B401A
:101C30008D892B43CD892B4383800483CD88858672
:101C4000028470BD002C014000340140004001407E
:101C500000440140004801400A460021018B4FF634
:101C6000F7731940114301837047000070B50024D9
:101C700000220023058C4FF6EF7635400584028C58
:101C80008388048B48F6FF752C404FF6FF452C40A7
:101C90000D884FF6FF7606EA05252C434FF6DF75D3
:101CA0002A400D8906EA05152A434D8806EA0515DE
:101CB0002A43154DA84202D0144DA8421DD14FF61B
:101CC0007F752A404D894FF6FF7606EA05152A43AF
:101CD0004FF6BF752A408D8806EA05152A434FF650
:101CE000FF352B404FF2FF752B408D8906EA8505A5
:101CF0002B43CD8906EA85052B4383800483CD8859
:101D00000587028470BD0000002C014000340140B2
:101D10000A460021018B4FF2FF7319404FF6FF7303
:101D200003EA02231943018370470000002202885E
:101D30001D4B98420ED01D4B98420BD0B0F1804FF6
:101D400008D01B4B984205D01A4B984202D01A4B30
:101D5000984204D14FF68F731A404B881A43174BA1
:101D6000984207D0164B984204D04FF6FF431A40D2
:101D7000CB881A4302808B8883850B8803850A4BA6
:101D800098420BD0094B984208D00E4B984205D090
:101D90000D4B984202D00D4B984201D10B7A03862D
:101DA0000123838270470000002C01400034014071
:101DB0000004004000080040000C004000100040FB
:101DC0000014004000400140004401400048014030
:101DD00010B504462146054800F09BFA00BF80215B
:101DE000024800F0C8F90028F9D010BD00380140C1
:101DF00010B5044603E02078FFF7EAFF641C207862
:101E00000028F8D110BD000010B540F22551174848
:101E100000F0BEF948B3012015490870134800F0DE
:101E200073FAC4B21348144909884454204600F098
:101E300027F8104810490988405C4B2809D10E4802
:101E40000088401E0B49085C4F2802D101200B4935
:101E5000087009480088401C074908800846008827
:101E6000B0F5487F01DB0020088010BD003801403C
:101E7000BC000020A2010020B4000020C30000200C
:101E800010B50446E1B2054800F043FA00BF8021D6
:101E9000024800F070F90028F9D010BD004400405D
:101EA00010B5044603E02078FFF7EAFF641C2078B1
:101EB0000028F8D110BD00001FB5044600F084F8DA
:101EC00000F01EF800940020ADF80400ADF8060004
:101ED000ADF80800ADF80C000C20ADF80A0069461A
:101EE000064800F0A5F9012240F22551034800F010
:101EF00079F90121014800F032F91FBD004400408A
:101F000008B56846FEF713FF0820ADF8000004206E
:101F10008DF8030069460848FEF728FE0420ADF856
:101F2000000003208DF8020018208DF80300694698
:101F30000148FEF71BFE08BD0008014010B540F245
:101F40002551134800F024F908B3114800F0DCF9DA
:101F5000C4B210481049098844540F490988405CAC
:101F60000A2809D10C480088401E0A49085C0D283F
:101F700002D101200949087007480088401C064921
:101F8000088008460088F92801DD0020088010BD7F
:101F900000440040C2040020B6000020BE00002023
:101FA00008B54FF4E060FFF73DFA26208DF80000F9
:101FB00002208DF801008DF8020001208DF8030049
:101FC0006846FFF7F7F908BD10B5012144F2150086
:101FD000FFF774FA01210248FFF760FA10BD000014
:101FE0000200060010B50446E1B2054800F091F980
:101FF00000BF8021024800F0BEF80028F9D010BDD3
:102000000048004070B504460D4605E02078FFF713
:10201000E9FF641C681EC5B2002DF7D170BD000039
:102020001FB5044600F01EF800940020ADF804002F
:10203000ADF80600ADF80800ADF80C000C20ADF8C6
:102040000A006946064800F0F3F8012240F22551E3
:10205000034800F0C7F80121014800F080F81FBDD7
:102060000048004008B56846FEF761FE4FF4006086
:10207000ADF8000004208DF8030069461548FEF70E
:1020800075FD4FF48060ADF8000003208DF802006C
:1020900018208DF8030069460E48FEF767FD4FF4DF
:1020A0000060ADF8000004208DF8030069460A487E
:1020B000FEF75CFD4FF48060ADF8000003208DF862
:1020C000020018208DF8030069460348FEF74EFD14
:1020D00008BD000000100140000C014010B540F2A6
:1020E0002551104800F054F8D0B10E4800F00CF91A
:1020F000C4B20D480088C0F30D000C490C540A48C6
:102100000088401C0849088008460088F92801DD3D
:102110000020088001200649087002200549087047
:1021200010BD000000480040B8000020BC050020A1
:10213000BF000020BA00002008B54FF4E060FFF7B0
:1021400071F927208DF8000001208DF801008DF82D
:1021500002008DF803006846FFF72CF908BD21B195
:10216000828942F40052828104E082894DF6FF7335
:102170001A408281704702460020B1F5007F00D1ED
:1021800000BF13880B400BB1012000E00020704716
:1021900070B50246002400230025002040F66A1690
:1021A000B14200D100BFC1F3421501F01F03012667
:1021B00006FA03F3012D02D19689334006E0022D81
:1021C00002D1168A334001E0968A33400C12012670
:1021D00006FA04F41688344013B10CB1012000E073
:1021E000002070BDF0B50346002400260025002025
:1021F00040F66A17B94200D100BF1846C1F3421435
:1022000001F01F06012707FA06F5012C01D10C3059
:1022100004E0022C01D1103000E014301AB107683C
:102220002F43076002E00768AF430760F0BD00007E
:102230002DE9F04786B005460E460024A24600BFB1
:10224000A1460027B08900B100BF2F462C8A4CF66A
:10225000FF700440F08804432C82AC894EF6F310E2
:102260000440B08831890843718908430443AC8134
:10227000AC8A4FF6FF400440B0890443AC8201A809
:10228000FFF72CF91F48874202D1DDF810A001E0CA
:10229000DDF80CA0A88900F4004040B10AEBCA00A8
:1022A00000EB0A1031684900B0FBF1F807E00AEBD7
:1022B000CA0000EB0A1031688900B0FBF1F8642015
:1022C000B8FBF0F004012009642101FB1089A88902
:1022D00000F4004040B1322000EBC900B0FBF1F047
:1022E00000F00700044308E0322000EB09106421ED
:1022F000B0FBF1F000F00F0004432C8106B0BDE804
:10230000F08700000038014001468888C0F30800CB
:102310007047C1F308028280704700BFFEE70000EB
:1023200010B586B00446012144F20D00FFF7C6F84F
:102330004FF40070ADF8140003208DF8160018203B
:102340008DF8170005A92848FEF710FC4FF48060AF
:10235000ADF8140004208DF8170005A92248FEF7F7
:1023600005FC4020ADF8140003208DF8160018205D
:102370008DF8170005A91D48FEF7F8FB8020ADF881
:10238000140004208DF8170005A91848FEF7EEFB8D
:1023900025208DF8000000208DF801008DF8020046
:1023A00001208DF803006846FFF704F8019400202F
:1023B000ADF80800ADF80A00ADF80C00ADF810005B
:1023C0000C20ADF80E0001A90948FFF731FF0122EA
:1023D00040F225510648FFF705FF01210448FFF7A9
:1023E000BEFE06B010BD000000080140000C014018
:1023F0000038014010B50446FFF7E6FDFFF780FD09
:102400002046FFF759FDFFF7CBFD10BD10B5044680
:10241000012144F21500FFF751F801210748FFF7A9
:102420003DF801210648FEF72DFCFFF71BFE204674
:10243000FFF7F6FDFFF780FE10BD0000020006006A
:1024400010001400014600BF704710B5034600207D
:1024500003E00C5C1C54441CE0B29042F9DB10BD5C
:1024600010B56FF00400FFF759FA0A4800680A49EE
:10247000B0FBF1F0094908700846007800EB400114
:10248000C1EBC0104FF6FF7101EAC000044908809B
:1024900010BD00009C00002000127A00B000002057
:1024A000B20000200146114A12884A434FF0E0234F
:1024B0005A6100229A611A46126942F001021A61B9
:1024C00000BF4FF0E022106900F001021AB100F4E1
:1024D0008032002AF5D04FF0E022126922F001028A
:1024E0004FF0E0231A6100229A617047B200002089
:1024F00008B5FEF7CBFAFFF7B3FFFEF727FEFEF7AE
:102500007FF94FF4E130FFF70BFF4FF4E130FFF7B5
:1025100071FF4FF41650FFF779FFFEF744FF41F6C5
:102520001F4140F2E730FFF7F1FA502140F6C900B1
:10253000FFF73AFA0020FE4908604FF6E070FD49C7
:102540000860FDA20A215A20FEF763FD4FF4FC60EB
:10255000F8490860F0234FF4A07228210020FEF70C
:1025600087FCF8A2B421B820FEF753FDF9A2A02100
:10257000B820FEF74EFD4FF6E070EE4908601522D8
:10258000F8A1FE48FFF761FF0622FD49FD48FFF76D
:10259000B5F80622FC49FD48FFF7B0F8F84AC82113
:1025A0007820FEF717FDF84AA4217820FEF712FDE7
:1025B000F7A2A4210820FEF72CFDF9A2A4214820AF
:1025C000FEF708FD4FF4FC60DA490860E0A2A421A0
:1025D000A820FEF733FDEEA2C8210820FEF719FD62
:1025E000F0A2C8214820FEF7F5FC4FF4FC60D14969
:1025F0000860D7A2C821A820FEF720FD0622EAA184
:10260000EB48FFF722FF0622EAA1EC48FFF71DFF87
:10261000A8E2FDF795FEEA48007850B30020E849AB
:102620000870E848007888B10020E64908704FF447
:102630000041E548FEF777FB4FF6E0704C23D422CB
:102640003C210090C420FEF733FC0EE00120DD4960
:102650000870C103DC48FEF768FB00204C23D4223D
:102660003C210090C420FEF723FC0821D748FFF747
:10267000C9FC00F01BFC4FF44872D5A1D648FEF708
:10268000DCFE18B10120D549086002E00020D349E2
:1026900008604FF44872D2A1CF48FEF7CEFE002862
:1026A0003CD0CD48FFF7FCFB0020D04908602FE06C
:1026B000C948CE490968405C632824D1C649CB4843
:1026C0000068401C085C69281DD1C8480068801C4F
:1026D000085C672817D1C5480068C01D085CAA4976
:1026E0000871BD49C14800680830085CA6494871B6
:1026F0000A46A4217820FEF76DFC0622A249A348D1
:10270000FFF710F809E0B9480068401CB7490860B5
:10271000B6480068B0F5487FCADB91E04FF44872D4
:10272000B3A1AD48FEF789FE88B3AB48FFF7B8FB0D
:102730000020AE49086030E0A748AC490968405C19
:10274000632825D1A449A9480068401C085C692871
:102750001ED1A6480068801C085C682818D1A348D0
:102760000068C01D085C864908719B499F48006845
:102770000830085C824948710A46C8217820FEF773
:1027800029FC06227E497F48FEF7CCFF0AE00AE0DA
:1027900096480068401C9549086094480068B0F568
:1027A000487FC9DB4CE04FF4487294A18A48FEF799
:1027B00044FE58B18848FFF773FB01209349086035
:1027C000062293A17D48FFF740FE39E04FF448729E
:1027D00091A18148FEF731FE58B17F48FFF760FBB9
:1027E00000208A490860062272A17448FFF72DFE76
:1027F00026E04FF448728CA17748FEF71EFE60B1C8
:102800007548FFF74DFB012080490C39086006220E
:1028100089A16748FFF719FE12E04FF4487288A1BA
:102820006D48FEF70AFE58B16B48FFF739FB0020F0
:1028300076490C39086006225BA15D48FFF705FE6A
:1028400083480078002871D08248007800286DD134
:102850007F4908708048C078804908600846006851
:10286000000208607C480079096808437B490860D9
:10287000794840797A490860084600680002086093
:10288000754880790968084375490860FDF746FD79
:102890007248006818B32B20724908706F480068AE
:1028A0006421B0FBF1F030306E4948706B4800682D
:1028B0006421B0FBF1F201FB12000A21B0FBF1F040
:1028C0003030684988702E20C870644800680A213A
:1028D000B0FBF1F201FB12003030624908710020B8
:1028E000604948715E4800686421B0FBF1F0303007
:1028F0005D4908705A4800686421B0FBF1F201FBA1
:1029000012000A21B0FBF1F03030574948702E20F8
:102910008870534800680A21B0FBF1F201FB1200F5
:1029200030305149C870002008719FE01AE1000062
:10293000FC00002000010020CEC2CAAAB6C8BCE03C
:10294000B2E20000CEC2B6C8A3BA202020202020C8
:10295000A1E60000CAAAB6C8A3BA202020202020E1
:10296000A3A50000487764686530313131742020B8
:10297000202020682020202054000000700100202A
:102980008C00002000F007089300002000F10708E9
:10299000B5B1C7B0E3D0D6B52020A3BA000000007F
:1029A0003100000032000000303430326F66000029
:1029B00085000020303430316F6600007E0000203A
:1029C000CB00002008000020001001400000002083
:1029D000434C4F5345440000A2010020500000200A
:1029E00048776369673031303200000058000020BA
:1029F000487763696830313032000000487763619E
:102A0000673031303430316F6E5400008C01224217
:102A1000303430316F6E0000487763616730313099
:102A20003530316F66665400487763616730313006
:102A30003430326F6E540000303430326F6E00002C
:102A400048776361673031303530326F66665400E5
:102A5000BF000020BA000020BC0500200C000020B0
:102A6000100000205C000020630000204FF6E070A2
:102A70003D4908603D4AB421E820FEF7ABFA3C4AE4
:102A8000A021E820FEF7A6FA3A48417900793038CB
:102A90000A2202FB00103038374908603748417974
:102AA0000079303802FB00103038354908602F4972
:102AB0000979A1F1300000F031FE8046314A324BF5
:102AC00000F044FE04460D4628498A78497830399A
:102AD0000A2303FB0121A1F1300000F01FFE06468E
:102AE00022462B4600F072FD824600F03DFD27494C
:102AF000086000F06FF8212225A12E48FFF7A5FC01
:102B000005221A492B480A30FFF79FFC0422184976
:102B100028481030FFF799FC062227492548143031
:102B2000FFF793FC0622254922481A30FFF78DFC57
:102B30004FF4487222A12448FEF77FFC38B94FF4C5
:102B40004872AFF274112048FEF777FC10B10120F3
:102B50001E4908701D48007810B11D48006808B96A
:102B600000F0E2F855E50000000100205C000020C4
:102B7000630000208C000020300000209300002023
:102B8000340000209A9999999999B93F380000200A
:102B90004877646865303131307420202020206807
:102BA0002020202020202020202020202020202025
:102BB00054000000700100207E00002085000020ED
:102BC0004552524F52000000A20100200701002090
:102BD0005000002010B53D48007870B93C4800789E
:102BE00001280AD03B48006838B94FF448723AA12E
:102BF0003D48FEF722FC002867D03B48FFF750F91C
:102C00003A4800683A49096888425ED33748006804
:102C100000F090FF044637480168204600F09EFF10
:102C200010D80120344908603449C1F88C010622CB
:102C300033A13548FFF709FC062234A13548FFF7D8
:102C400004FC42E02A48006800F074FF044629486A
:102C50000168204601F001F810D8002026490860DC
:102C60002649C1F88C0106222BA12A48FFF7EDFB6B
:102C700006222BA12448FFF7E8FB26E01C48006849
:102C800000F058FF04461B480168204600F066FF2C
:102C90001BD21648006800F04DFF04461548016835
:102CA000204600F0DAFF10D201201349086000200E
:102CB0001249C1F88C01062214A11648FFF7C5FB82
:102CC000062217A11048FFF7C0FB10BD0601002027
:102CD00007010020500000204877637472303130C3
:102CE000346175746F540000A20100203000002090
:102CF00034000020380000208001224200002242DF
:102D0000303430326F6E00008500002030343031B6
:102D10006F6E00007E000020303430316F6600009E
:102D2000303430326F66000010B50E2252A1564882
:102D3000FFF78BFB5548FEF702F855490870084627
:102D400000780A280EDA084600780A2190FBF1F292
:102D500001FB120030304C4948730D2088730A2063
:102D6000C8731AE04A480078642190FBF1F201FB35
:102D700012000A2190FBF1F0303043494873444877
:102D800000780A2190FBF1F201FB120030303E493D
:102D900088730D20C8730A2008743B48FFF780F839
:102DA0003948FFF725F81E203A4908704FF6E070C1
:102DB0003949086023E00020354908700EE03748A3
:102DC00033490978405C3E2803D10020344908602B
:102DD0000AE02F480078401C2D4908702C480078E4
:102DE000304909688842EAD300BF2A48007830B9E0
:102DF00001202D49087000202949086003E0284877
:102E000000680028D7D100BF2748007890BB012078
:102E1000234908601D48FFF743F81C48FEF7E8FF08
:102E200000F06AFBFDF756FAFDF766FA0020184934
:102E3000087009E000201449154A12788854144893
:102E40000078401C12490870114800781428F1DB02
:102E500000200F49087009E000210C480C4A127844
:102E600081540B480078401C0949087008480078D4
:102E70003228F1DB10BD000041542B43495053452B
:102E80004E443D342C3000000C0100207001002025
:102E900054000020BB00002000010020A2010020FF
:102EA00040000020B40000200701002010B5FE48BB
:102EB000007810BB4FF4FC60FC490860FCA2D821EC
:102EC0007820FEF787F8FBA2D8218020FEF782F851
:102ED000F8A2D8218820FEF77DF8F6A2D82190200C
:102EE000FEF778F8F3A2D8219820FEF773F8F1A244
:102EF000D821A020FEF76EF8C1E0EB480078012849
:102F000022D14FF4FC60E9490860EAA2D821782078
:102F1000FEF760F8E6A2D8218020FEF75BF8E5A274
:102F2000D8218820FEF756F8E2A2D8219020FEF79B
:102F300051F8E0A2D8219820FEF74CF8DDA2D82164
:102F4000A020FEF747F89AE0D7480078022822D15F
:102F50004FF4FC60D5490860D6A2D8217820FEF74E
:102F600039F8D4A2D8218020FEF734F8D0A2D82195
:102F70008820FEF72FF8CFA2D8219020FEF72AF85C
:102F8000CCA2D8219820FEF725F8CAA2D821A020EB
:102F9000FEF720F873E0C4480078032822D14FF4EC
:102FA000FC60C2490860C3A2D8217820FEF712F85D
:102FB000C0A2D8218020FEF70DF8BEA2D82188201B
:102FC000FEF708F8BAA2D8219020FEF703F8B9A2BC
:102FD000D8219820FDF7FEFFB6A2D821A020FDF74A
:102FE000F9FF4CE0B0480078042822D14FF4FC608F
:102FF000AE490860AFA2D8217820FDF7EBFFADA263
:10300000D8218020FDF7E6FFAAA2D8218820FDF76D
:10301000E1FFA8A2D8219020FDF7DCFFA4A2D821CF
:103020009820FDF7D7FFA3A2D821A020FDF7D2FF5B
:1030300025E09D480078052821D14FF4FC609B498C
:1030400008609CA2D8217820FDF7C4FF99A2D8215E
:103050008020FDF7BFFF97A2D8218820FDF7BAFF97
:1030600094A2D8219020FDF7B5FF92A2D8219820F4
:10307000FDF7B0FF8EA2D821A020FDF7ABFF8E4850
:10308000007810BB4FF4FC608849086088A2B42126
:103090007820FDF79FFF87A2B4218020FDF79AFFDB
:1030A00084A2B4218820FDF795FF82A2B42190204C
:1030B000FDF790FF7FA2B4219820FDF78BFF7DA242
:1030C000B421A020FDF786FFC1E07B4800780128ED
:1030D00022D14FF4FC607549086076A2B4217820B3
:1030E000FDF778FF72A2B4218020FDF773FF71A273
:1030F000B4218820FDF76EFF6EA2B4219020FDF769
:1031000069FF6CA2B4219820FDF764FF69A2B42185
:10311000A020FDF75FFF9AE067480078022822D1DF
:103120004FF4FC606149086062A2B4217820FDF789
:1031300051FF60A2B4218020FDF74CFF5CA2B421B6
:103140008820FDF747FF5BA2B4219020FDF742FFE6
:1031500058A2B4219820FDF73DFF56A2B421A0202B
:10316000FDF738FF73E054480078032822D14FF46C
:10317000FC604E4908604FA2B4217820FDF72AFF79
:103180004CA2B4218020FDF725FF4AA2B42188205B
:10319000FDF720FF46A2B4219020FDF71BFF45A2BA
:1031A000B4219820FDF716FF42A2B421A020FDF71C
:1031B00011FF4CE040480078042822D14FF4FC6015
:1031C0003A4908603BA2B4217820FDF703FF39A2F9
:1031D000B4218020FDF7FEFE36A2B4218820FDF741
:1031E000F9FE34A2B4219020FDF7F4FE30A2B42100
:1031F0009820FDF7EFFE2FA2B421A020FDF7EAFEF4
:1032000025E02D480078052821D14FF4FC6027499E
:10321000086028A2B4217820FDF7DCFE25A2B421A5
:103220008020FDF7D7FE23A2B4218820FDF7D2FE2F
:1032300020A2B4219020FDF7CDFE1EA2B42198203B
:10324000FDF7C8FE1AA2B421A020FDF7C3FE1B485B
:103250000078012866D100201849087018480068D5
:1032600008BBC820FFF71EF916480F490978405CD3
:1032700030381549087008460078002807DB0846F2
:103280000078092803DA08460078401C08700E48C8
:10329000007830300B49044A127888544FF6E070B9
:1032A0000249086033E011E04E00002000010020D8
:1032B0002D000000200000004F000020040100202D
:1032C0002C0000208C0000204C000020C820FFF7BC
:1032D000E9F87E487E490978405C30387D490870BD
:1032E00008460078002807DB08460078092803DA3A
:1032F00008460078401C08707648007830307349E2
:10330000734A127888544FF6E07073490860734A24
:10331000C8217820FDF75EFE6C4AA4217820FDF7D5
:1033200059FED1E06E480078022854D100206C4943
:1033300008706C48006810BBC820FFF7B3F86748F6
:1033400069490978405C3038684908700846007857
:10335000002807DD08460078092803DC08460078C5
:10336000401E0870614800783030C1B25B485E4A48
:10337000127881544FF6E0705749086020E0C82069
:10338000FFF790F8514852490978405C303851496C
:10339000087008460078002807DD084600780928EC
:1033A00003DC08460078401E08704A480078303038
:1033B0004649474A127888544FF6E07046490860FB
:1033C000464AC8217820FDF705FE404AA42178200E
:1033D000FDF700FE78E042480078032818D100206D
:1033E0003F490870C820FFF75DF83E48006808B9FB
:1033F000012000E000203B490860384AC8217820BD
:10340000FDF7E8FD314AA4217820FDF7E3FD5BE0FC
:1034100033480078042835D10020314908703148FC
:10342000006890B9C820FFF73DF82F480078401C8D
:103430002D49087008460078052801DD0020087035
:103440004FF6E0702449086011E0C820FFF72AF821
:103450001F480078401C1E4908700846007805285F
:1034600001DD002008704FF6E0701B4908601B4A20
:10347000C8217820FDF7AEFD144AA4217820FDF77D
:10348000A9FD21E01648007805281DD10020144927
:103490000870C820FFF706F8062210491448FEF706
:1034A00041F9062209491348FEF73CF94FF6E0704E
:1034B00009490860094AC8217820FDF78BFD034AB5
:1034C000A4217820FDF786FD10BD000093000020A8
:1034D0004F0000204D000020000100208C00002043
:1034E000040100202C0000204E0000204C00002091
:1034F00000F0070800F1070810B51E200A490870FF
:1035000007E0FFF7D3FCFFF765FB0748007800B939
:1035100003E0064800780028F3D000BF00200349EC
:103520000870FCF7D7FE10BDBB000020C3000020D0
:1035300010B546200A49087007E0FFF7B7FCFFF70F
:1035400049FB0748007800B903E0064800780028E6
:10355000F3D000BF002003490870FCF7BBFE10BD8C
:10356000BB000020C300002021F00042A2F1605205
:10357000B2F5801F01F0004328BFD2F17F6C0BD958
:103580005FEA001C43EAC20242EB507018BF70476A
:1035900028BF20F001007047B2F5801FBCBF18465D
:1035A00070474FEA410C1CF5001F02D2084600F09C
:1035B0004FBB70B500F074F900000089FFF7F6BF4B
:1035C0004FF00040A0F580007047000010B591EA70
:1035D000030F48BF83F0004300F1BE81841A71EBF2
:1035E000030C05D2121943EB0C03001B61EB0C0119
:1035F000DFF824E14FEA1154A4EB135C1EEA430FF9
:1036000018BF9EEA445F73D023EA0E03DCF1200E5C
:1036100021EA045143F4801332D322FA0CFE10EB5A
:103620000E0023FA0CFE41EB0E01CCF1200E03FA42
:103630000EFE10EB0E0051F10001B1F5801FCCF130
:10364000200E32D201EB045112FA0EF2BDE8104006
:1036500058BF7047401C38BF5FEA420218BF70472E
:10366000002814BF20F0010041F100014FEA41039E
:1036700013F5001F38BF7047A1F1C04100F05EB9DB
:10368000012A43EB0302ACF1200CDCF11F0E32BF28
:103690004FF0000E23FA0CF310EB030041EB045142
:1036A000B4EB115FD0D0A1EB045101F580114908B2
:1036B0005FEA300001EB04510ED350F1000038BF37
:1036C00012FA0EFE08D1BDE81040C9E7401C38BF11
:1036D0005FEA4202CAD1C3E7BDE810404FEA4103A6
:1036E00013F5001F38BF7047A1F1C04100F026B9A3
:1036F0009EEA445F08D011EA5E0FBDE8104004BFA7
:1037000001F0004100207047BDE8104070B500F0A6
:10371000C7F800BF64FBBE3E0000E0FF10F00042AF
:1037200048BF4042B0FA80F310FA03F10AD0C3F167
:103730001D0303F580634FEA415002EB035202EB95
:10374000D12170474FF0000070470000DFF848C1FA
:1037500070B51CEA111E1EBF1CEA13159EEA0C0F61
:1037600095EA0C0F00F06F8081EA030423EA4C1302
:103770004EEAD47E21EA4C1141F4801143F48013C7
:10378000AE44A1FB024CA0FB0365AEF17F7E36196F
:1037900055EB0C05A1FB034C4CF10003A0FB021CF4
:1037A00016EB0C06654153F10003094218BF46F0C1
:1037B000010613F4007F0BD14FEA03314FEA0530C5
:1037C000340341EA155140EA16506FF003020AE053
:1037D0004FEAC3214FEAC520F40241EA555140EABD
:1037E00056506FF0020202EB2E4201EB025585EAC1
:1037F000CE710AD05FEA440C18BF24F0004450F1A7
:10380000000041F1000120EAD47040F2FE7C6245E4
:1038100000D270BDA84214BF4FF080444FF0404426
:10382000002E08BF0024BEF1806FA8BFA1F1C041E7
:10383000BDE8704080F282804FF0000001F1C0418D
:1038400001F0004170479EEA0C0F0CEA131518BFF7
:1038500095EA0C0F06D04FF0000081EA030E0EF03F
:10386000004170BD00F01CF88900013E00F007B86F
:1038700000F009B84FEA430C5FEA5C5C08D081EACB
:10388000030100F05BB84FEA410C5FEA5C5CF6D1E3
:103890004FF00000014970470000FF070000F87F6B
:1038A0000EF1020E2EF0030E5EF8046B364205D4C4
:1038B000012A43EB030515F5001F12D8012841EB3F
:1038C000010C1CF5001F0CD80ED14FEAD17C15F568
:1038D000001F0CEB4C0C0CF1020C08BF4CEBD37C22
:1038E00004E04FF0080C01E04FEAD37C0CEB4C05F0
:1038F00026FA05F606F00706B6F1040C06D20EEB22
:10390000860CBDE870404CF0010C6047DFE80CF01D
:10391000090B02024FF000414FF00000A1F5002119
:1039200070BD19461046012851EB010418BFD4F5AB
:10393000001484BF002001F0004170BD0808A0F50C
:1039400000114FEA3101704710B591EA030F48BFEB
:1039500083F000433FF542AE841A71EB030C07D2AB
:1039600012198CF0004C43EB0C03001B61EB0C01B3
:10397000DFF8A4E14FEA1154A4EB135C1EEA430FF5
:1039800018BF9EEA445F00F0B08023EA6E03524203
:1039900021EA0451C3EB6E0338BF5B1EDCF1200E3D
:1039A00025D322FA0CFE10EB0E0043FA0CFE41EB7D
:1039B0000E01CCF1200E03FA0EFE10EB0E0051F1B9
:1039C0000001CCF1200E29D412FA0EF201EB0451C1
:1039D000BDE8104058BF7047401C1CBFB2F1004FFB
:1039E000704700280CBF491C20F00100704712EB03
:1039F000020E43EB030218BF4FF0010E4EEA4202E3
:103A0000ACF1200CDCF11E0E54D943FA0CFE10EB85
:103A10000E0051F1FF31CCF11E0ED5D50EF1010E85
:103A200012FA0EFE404141EB010101EB445C5FEAFA
:103A30005C5C10D910EBDE7001EB045138BFBEF1B5
:103A4000004FBDE8104018BF704700280CBF491C4C
:103A500020F00100704730D24FEAD42C11F500114C
:103A600024F400641BD0B1FA81F20B3AA41AA41E0C
:103A7000D2F12003914030FA03F31943904001EB57
:103A8000CC71002C01EB0451BDE81040A8BF704779
:103A900001F1C0414FF0000001F000417047B0FA61
:103AA00080F310FA03F100D110BDE41A173C480569
:103AB000C90AE4E701EB045110BD491001EB0451C0
:103AC000BDE810404FEA300002E04FF000017047BF
:103AD0004A0008BF0042F8D0B2F5001F28BF704767
:103AE00001F000414FF0000070479EEA445F07D0AC
:103AF00011EA5E0FBDE8104004BF002100207047AE
:103B0000BDE8104070B5FFF7CBFE00BF40DFF63ECA
:103B100083F00041104670470000E0FF401058BF9E
:103B2000C0F14040491058BFC1F140418142EFF31C
:103B300000807047B0FA80F310FA03F2C3F19D03DE
:103B40000AD0D90501EB1220530638BF704700F1A7
:103B5000010008BF20F001007047000050EA010C8E
:103B600000F113801CF5000F58BFBCF5000F01D405
:103B70008842704707D710F5000F58BF11F5000FA6
:103B800015D488427047894270471CF5000F04D550
:103B9000BCF5000FF7D5814270474FF0807C1CEBDD
:103BA000400F38BF1CEB410F01D28142704710B566
:103BB00000F008F8922449004FF000504FF0805177
:103BC000FFF7ACBF0EF1020E2EF0030E5EF8044BB1
:103BD000244204D44FEA4102B2F17F4F11D84FEA98
:103BE0004003B3F17F4F0CD80ED14FEAD07CB2F135
:103BF0007F4F0CEB4C0C0CF1020C08BF4CEBD17C52
:103C000004E04FF0080C01E04FEAD17C0CEB4C03D0
:103C100024FA03F404F00704B4F1040C06D20EEB0A
:103C2000840CBDE810404CF0010C6047DFE80CF05C
:103C3000070802024FF00040A0F5800010BD0846C2
:103C4000420018BFD2F1807288BF00F0004010BD62
:103C5000FF2141EAD050C005704751EA000C00F145
:103C600013801CF5000F58BFBCF5000F01D4814232
:103C7000704707D711F5000F58BF10F5000F15D486
:103C800081427047894270471CF5000F04D5BCF58E
:103C9000000FF7D5884270474FF0807C1CEB410F36
:103CA00038BF1CEB400F01D28842704780EA010008
:103CB00081EA000180EA0100FFF779BF00000000FF
:103CC00000000000000000000000000000000008EC
:103CD00008080808080800001818000000486C24AC
:103CE000120000000000000000000000000000249E
:103CF00024247F1212127F12121200000000081CEE
:103D00002A2A0A0C1828282A2A1C0808000000223F
:103D1000251515152A585454542200000000000C93
:103D20001212120A76252911916E0000000606046F
:103D30000300000000000000000000000040201010
:103D400010080808080808101020400000020408A5
:103D500008101010101010080804020000000000E5
:103D600008086B1C1C6B0808000000000000000025
:103D7000080808087F080808080000000000000084
:103D80000000000000000000060604030000000020
:103D900000000000FE000000000000000000000025
:103DA0000000000000000000060600000000804047
:103DB000402020101008080404020200000000182F
:103DC00024424242424242422418000000000008BD
:103DD0000E08080808080808083E00000000003C1B
:103DE0004242422020100804427E00000000003CB5
:103DF0004242201820404042221C000000000020C7
:103E00003028242422227E20207800000000007E1A
:103E10000202021A26404042221C00000000003824
:103E20002402021A26424242241800000000007EAA
:103E30002222101008080808080800000000003CB2
:103E40004242422418244242423C00000000001832
:103E50002442424264584040241C000000000000FC
:103E600000001818000000001818000000000000F2
:103E700000000008000000000008080400000040E6
:103E80002010080402040810204000000000000078
:103E900000007F0000007F00000000000000000222
:103EA0000408102040201008040200000000003C1C
:103EB0004242464020101000181800000000001C6C
:103EC000225A555555552D42221C0000000000086D
:103ED00008181414243C224242E700000000001F8E
:103EE0002222221E22424242221F00000000007CA9
:103EF0004242010101010142221C00000000001F9A
:103F00002242424242424242221F00000000003F41
:103F10004212121E12120242423F00000000003FF5
:103F20004212121E12120202020700000000003CA0
:103F30002222010101712122221C0000000000E761
:103F4000424242427E42424242E700000000003EBE
:103F50000808080808080808083E00000000007C5F
:103F600010101010101010101010110F000000771A
:103F700022120A0E0A121222227700000000000705
:103F80000202020202020202427F000000000077E9
:103F9000363636362A2A2A2A2A6B0000000000E329
:103FA00046464A4A52525262624700000000001CD4
:103FB0002241414141414141221C00000000003F9B
:103FC000424242423E020202020700000000001C80
:103FD0002241414141414D53321C60000000003FED
:103FE0004242423E1212222242C700000000007CE0
:103FF0004242020418204042423E00000000007F7E
:104000004908080808080808081C0000000000E724
:104010004242424242424242423C0000000000E72B
:104020004242222424141418080800000000006BE7
:10403000494949495555362222220000000000E72F
:10404000422424181818242442E7000000000077B6
:104050002222141408080808081C00000000007E32
:104060002120101008040442423F00000078080894
:104070000808080808080808080878000000020274
:10408000040408080810102020204040001E1010D2
:10409000101010101010101010101E0000384400E6
:1040A0000000000000000000000000000000000010
:1040B0000000000000000000000000FF00060800F3
:1040C00000000000000000000000000000000000F0
:1040D0000000003C4278444242FC00000000000323
:1040E0000202021A26424242261A00000000000084
:1040F0000000003844020202443800000000006062
:10410000404040784442424264D800000000000031
:104110000000003C427E0202423C0000000000F031
:104120008808087E08080808083E00000000000013
:104130000000007C22221C023C42423C00000003A2
:104140000202023A4642424242E700000000000CEE
:104150000C00000E08080808083E000000000030AF
:1041600030000038202020202020221E00000003E4
:1041700002020272120A1612227700000000000EDC
:104180000808080808080808083E000000000000A9
:104190000000007F9292929292B70000000000000F
:1041A0000000003B4642424242E70000000000009F
:1041B0000000003C42424242423C0000000000003D
:1041C0000000001B26424242221E0207000000009F
:1041D0000000007844424242447840E00000000081
:1041E000000000774C040404041F000000000000DD
:1041F0000000007C42023C40423E00000000000003
:104200000008083E08080808083000000000000008
:10421000000000634242424262DC000000000000F5
:10422000000000E7422424140808000000000000F9
:10423000000000EB49495555222200000000000013
:104240000000007624181818246E000000000000FA
:10425000000000E7422424141808080700000000AA
:104260000000007E22100808447E000000C02020CC
:1042700020202010202020202020C000101010100E
:104280001010101010101010101010100006080858
:104290000808081008080808080806000C32C200C0
:1042A0000000000000000000000000000001040207
:1042B0000802E83F000840088F04080508020805C6
:1042C0008808481028101400E27F0000D5E2F80F9B
:1042D00008080808F80F08080808F80F0000FF7F12
:1042E00080008800881F88009400A200C17FCAC790
:1042F0000000000000000000000000000000FF7F40
:1043000000000000000000000000000000000000AD
:10431000D2BB20002000F00F18042602C001B80E06
:1043200087708000FE3F8000900488088410A220DF
:104330004000CCF50020E4232822282AA12AA22A22
:10434000A22AA82AA82AA42AA72A842044214422EF
:1043500024281010B2E20014042408240804E07F8A
:1043600000040F04E807880488088808A808985300
:10437000E85040600040CAD40000E23F040204025A
:10438000C01F00110711E47F04000400C41F441083
:1043900054104C10C41F4010D3EF10001000080040
:1043A000F81F04100210F911081108110811081162
:1043B000F81108110010000A0004BEE40000080013
:1043C00008000800080008000800080008000800AD
:1043D000000000000800080000000000A3A1400049
:1043E0008000FE7F02401121200120010801100100
:1043F0001001FF7F80024004200818100620CAB573
:1044000000041F04100A120A12119220525F3E008B
:1044100020222024B824271522112008D47F080048
:10442000D1E9000000000000FC1F000000000000B7
:1044300000000000000000000000FF7F00000000FE
:104440000000B6FE000104020802E83F0008400830
:104450008F040805C41F4410C41F4410D41F4C10FF
:1044600044144008C7EB0000E21F04088405000262
:10447000E03F27222422E43F24222422E43F242276
:10448000242A2A10F17FCDA8000804080808E87F34
:10449000000800084F088808880808080808080A63
:1044A00008041400E27F0000B9FD80008000FC1FBA
:1044B00084108410FC1F80008000FE3F8220822038
:1044C000FE3F8220800080008000B4AE000000002B
:1044D000FC1F041004100410041004100410041035
:1044E000041004100410FC1F04100000BFDA0000C8
:1044F000E23F24222422A02F20222722E43F24204E
:10450000A42FA428B428AC2F242020281010B5F7FD
:104510000014042408240804E07F00040F04E807C2
:10452000880488088808A8089853E850406000402C
:10453000CAD400043E0422042204223F3E24222442
:1045400022243E2422242224222272220F2180149B
:104550004008D6FA0008001FFC0080008000FC1F05
:10456000800080008000FF7F80008000800080004D
:10457000A0004000CAD68000880888104400FC3F94
:1045800040002000E01F5010901088080805040229
:104590000205C0183860B7A2401084108808E83FB0
:1045A000000200020F02E87F0802080508098810CF
:1045B00048101400E27F0000CBCD10041004FF7FF0
:1045C000100480008000F80F880888088808FF7FA2
:1045D0004001200210040C180360D3A240008000A8
:1045E0008000FF7F08080808100410042002400122
:1045F00080004001200210040C180360CEC440006B
:104600008000FE7F02400120F807000200018000C8
:10461000FF7F8000800080008000A0004000D7D68F
:1046200008020802FC7E1209A11010081008C87FB9
:104630000C088A080909080908080808080A080473
:10464000B7FB0000000000000000000000000000B8
:1046500000000000000000000C000C000800040036
:104660000000A3AC0808100810040000FE3F10046E
:10467000100410041004FF7F100410040804080440
:1046800004040204B2A20008200844088408840834
:10469000040804080404040404042402140A0C1189
:1046A000842040402040D2D40000FC1F041004109D
:1046B000E41324122412241224122412E4130410EA
:1046C0000410FC1F04100000BBD840004000400054
:1046D000FE3F2000900088008400FC1F80008000C6
:1046E000FF7F8000800080008000B3B508010801D2
:1046F000081F88105F08A83F882498248C248B24E6
:10470000E87F080A080A08118A206440BBBB100031
:10471000903F0800040012001000C87F0C040A0437
:104720000904080408040804080408050802D0D095
:10473000080408040404E47F22041F04883F0400E2
:104740000200BF3F82208020B8208720823F802047
:10475000BDE10000FC3F04200420FC3F0400040FE6
:10476000F4008400840FF4008400841FFA40824027
:10477000017FCEB200000000FE3F000000000000FC
:104780000000FC1F00000000000000000000FF7F90
:1047900000000000C8FD00000000FE3F222222228F
:1047A0002222222222221222123C0A200620022049
:1047B000FE3F02200000CBC40000C41F4810481078
:1047C000C11F42104210C81F0800E43F27252425BE
:1047D00024252425F47F0000CEC20000E41F281009
:1047E0002810E11F22102210E81F88048404972457
:1047F000A414C40C8404F47F0000CAAA8000000141
:10480000FC7F44044404FC3F44044404C407040003
:10481000F40F240842048203610C1C70B6C88000A7
:1048200084108810900890048000FF7F20022002EE
:1048300020022002104210420842047C0300B9E228
:104840000000BE3F2222222222222229BE10223F25
:104850002221222122213E3F000012112222212268
:10486000D5D580008000800080008000800040015D
:104870004001200220021004100408080410022045
:104880000140C8CB1002100210020802E83F0C02DF
:104890000C070A07890A880A4812A82F184208023A
:1048A00008020802CCE508000800843F2404220422
:1048B0001F040804040402043F0402040004380432
:1048C0000704C27F0000BAEC0802080208020802CE
:1048D0007C024406420A42122522282210021002BB
:1048E0000802040202020102CDE240004000FF7F04
:1048F00020002000F00F10081808F40F120811080B
:10490000F00F10081008100A1004D3D00000FC0F9C
:104910004000400040004000FE3F200120012001F7
:104920001001100108210421023E0100CEDE00002A
:104930000000000000000000000000000000000077
:104940000C000C0000000C000C0000000000A3BADA
:104950000600892F69303620102018001800180032
:10496000180018001800100030206010800F0000A0
:10497000A1E60000182024102408240424022401A5
:1049800098004006200910090809040902090006D8
:104990000000A3A5100210021002C81F08020C019B
:1049A000EC7F0A018900C81F081088080805080262
:1049B00008040804B4AB00140024FC7F0404F425AC
:1049C0000424F41514191449F255026201418000BF
:1049D00012211248E14FB8D000007C3E442244220C
:1049E0007C3E80048008FF7F400130060C18036085
:1049F0007C3E442244227C3EC6F78000841088100E
:104A0000900890048000FE1F001000100010FC1F92
:104A1000001000100010FE1F0010B5B108081008AB
:104A20001004FF7F00007C10441244127C124412D8
:104A300044127C124410441054142408C7B00400DB
:104A4000E83F002102250229FA2F02217225522572
:104A500072250223622A1A2D822842200230E3D0D6
:104A600010021002F03F08020802CC1F4C10CA1FAF
:104A70004910C81F4810C81F48104810F87F080088
:104A8000D6B500000000000000000000000000009B
:104A9000000000000C000C0000000C000C000000E6
:104AA0000000A3BA80008410881090089004800051
:104AB000FF7F200220022002200210421042084202
:104AC000047C0300B9E20000BE3F222222222222FF
:104AD0002229BE10223F2221222122213E3F000016
:104AE000121122222122D5D520022402243E2402A2
:104AF00024092411A41020000000FC1F24122412F9
:104B000024122412FF7F0000BCE00020E4232822AE
:104B1000282AA12AA22AA22AA82AA82AA42AA72A9D
:104B200084204421442224281010B2E20000C41F33
:104B300048104810C11F42104210C81F0800E43F2F
:104B40002725242524252425F47F0000CEC200003B
:104B5000E41F28102810E11F22102210E81F8804EB
:104B600084049724A414C40C8404F47F0000CAAA0B
:104B700080000001FC7F44044404FC3F44044404DE
:104B8000C4070400F40F240842048203610C1C7063
:104B9000B6C80000B44B0008000000200C01000063
:104BA0006C010008C04C00080C0100200415000036
:104BB00088010008010300000002C40B000000008F
:104BC00000000000000000000000000000000000E5
:104BD00000000000000000000000000002000000D3
:104BE00000000000000000000000000000000000C5
:104BF00000000000000000000100000000000000B4
:104C000000000000010000000000000000000000A3
:104C10000000000000000000000000000000000094
:104C20000000000000000000000000000000000084
:104C30000000000000000000000000000000000074
:104C40003030303030300030303030303000000024
:104C500000A24A040000000000000000010203045A
:104C60000607080900000000000000000000000026
:104C70000000000000000000000000000000000034
:104C80000000000000000000000102030401020314
:104C900004060708090204060800000000000000DE
:104CA000B63C00009D2B00008C000000920000002C
:104CB00000000000000000000001000000000000F3
:04000005080001CD21
:00000001FF
